:040000000DEF00F010
:0400080023EF97F05B
:06001800FF00E2EF99F089
:10F9CA0000163D01000000000000164D0100000075
:10F9DA00B64801000000000000000000000000001E
:10F9EA00000000000000000000000000000000000D
:10F9FA0000000000000000000000000000324B017F
:10FA0A00104B01EE4A01000000F63901000000EA3D
:10FA1A004701184501000000764B01000000000074
:10FA2A0000000000000000000000000000000000CC
:10FA3A000000000000000000000000000000006656
:10FA4A004A01000000CC4A01AA4A01884A01000082
:10FA5A0000A8450100000070350100000000000008
:10FA6A00C242012243010000000000000000000021
:10FA7A000000204A01584C014A4C01244401464DD9
:10FA8A0001404D010A4901204C01000000E04801F3
:10FA9A002E4D010000000000003C4C010000000255
:10FAAA0020003F0002400000000A0A0D2050726F39
:10FABA006772616D6D696E6720436F6D706C6574F6
:10FACA006564205375636365737366756C6C79211D
:10FADA000A0D2D2D2D2D2D2D2D2D2D2D2D2D2D2D8F
:10FAEA002D2D2D2D2D2D2D2D2D2D2D2D2D2D2D2D3C
:10FAFA002D2D0D0A204E616D653A2000496E766102
:10FB0A006C6964204E756D6265722021203D3D3E10
:10FB1A0020546865204E756D6265722053686F7552
:10FB2A006C642062652045697468657220312C20F6
:10FB3A002832292C206F7220330D0A0A000A0A0D76
:10FB4A0054686520696D6167652073697A65206903
:10FB5A007320686967686572207468616E207468CA
:10FB6A006520616C6C6F77656420737061636520D2
:10FB7A006D656D6F7279210A0D0057616974696E3E
:10FB8A006720666F72207468652066696C652074E8
:10FB9A006F2062652073656E74202E2E2E202870C9
:10FBAA00726573732027612720746F2061626F72F8
:10FBBA0074290A000D0A4D61676963204E756D62EA
:10FBCA00657220446F6573204E6F74204D617463B3
:10FBDA00682E2E2E20466C61736820696D616765F8
:10FBEA0020696E76616C69640D0A0A004D656E754E
:10FBFA002054696D656F75742E2E2E2E20417474F3
:10FC0A00656D7074696E6720746F206C61756E63C0
:10FC1A0068206170706C69636174696F6E0D0A0A9D
:10FC2A00000D0A2020506C65617365206D616B655B
:10FC3A0020612073656C656374696F6E20776974DF
:10FC4A0068696E20353020736563730D0A0A000AED
:10FC5A000D496620612076616C696420696D61676F
:10FC6A0065206578697374732C2069742077696CD0
:10FC7A006C206C61756E63680A0D002020557064F3
:10FC8A0061746520546865204669726D7761726592
:10FC9A00202D2D2D2D2D2D2D2D2D2D2D2D2D2D2D97
:10FCAA002D20310D0A0A002020426F6F74205379EB
:10FCBA007374656D202D2D2D2D2D2D2D2D2D2D2D72
:10FCCA002D2D2D2D2D2D2D2D2D2D2D2D2D20320D82
:10FCDA000A0A0020205072696E7420417070205602
:10FCEA00657273696F6E202D2D2D2D2D2D2D2D2DC5
:10FCFA002D2D2D2D2D2D2D2D2D20330D0A0A0020D1
:10FD0A00205072696E7420426F6F746C6F61646503
:10FD1A00722056657273696F6E202D2D2D2D2D2D33
:10FD2A002D2D2D2D2D20340D0A0A003D3D3D3D3D42
:10FD3A003D3D3D3D3D3D3D3D3D3D3D3D3D3D3D3DE9
:10FD4A003D3D3D3D3D3D3D3D3D3D3D3D3D3D3D3DD9
:10FD5A003D3D3D0D0A0A000D0A3D3D3D3D3D204415
:10FD6A0043445520426F6F74204D656E7520203DC7
:10FD7A003D3D3D3D3D3D0D0A0A000D0A3D3D3D3DDF
:10FD8A003D0953797374656D205374617274696E99
:10FD9A0067203D3D3D3D3D3D3D0D0A0A000A0D46A9
:10FDAA0061696C656420746F207265636569766544
:10FDBA00207468652066696C65210A0D00436F6DC1
:10FDCA006D616E6420737472696E672073697A65F7
:10FDDA00206F766572666C6F770D0A000A0A0D56F7
:10FDEA006572696669636174696F6E206661696CC0
:10FDFA006564210A0D000D0A4D61676963204E751D
:10FE0A006D626572204D6174636865730D0A0A003C
:10FE1A004572726F722C20496E7075742061676129
:10FE2A00696E3A200D0A004D6F64756C652054792D
:10FE3A0070653A2052455345525645440A000D0A08
:10FE4A00526567697374657220416464726573737D
:10FE5A003A202578000D0A0A41626F72746564209F
:10FE6A00627920757365722E0A0D004D6F64756C88
:10FE7A006520547970653A204143444D3130410A36
:10FE8A00004D6F64756C6520547970653A2044435F
:10FE9A00444D3130410A004D6F64756C65205479C8
:10FEAA0070653A204443444D3630410A004D6F6430
:10FEBA00756C6520547970653A204443434D323558
:10FECA00410A004D6F64756C6520547970653A205B
:10FEDA004143444D3335410A004D6F64756C6520CA
:10FEEA00547970653A204443444D3335410A000D34
:10FEFA000A4E6F7420612076616C696420636F6DAD
:10FF0A006D616E64002D2D2D2D2D2D2D2D2D2D2D58
:10FF1A002D2D2D2D2D2D2D2D0A000D0A456E7465C2
:10FF2A007220466C617368204D6F64650055736575
:10FF3A00722043616E63656C6C6564200D0A004231
:10FF4A006F6F742076657273696F6E2069733A20D9
:10FF5A00004170702076657273696F6E2069733A1A
:10FF6A0020000D0A426C6F636B2052656164204366
:10FF7A006D6400496E76616C6964205645525F492A
:10FF8A00440A00496E76616C69642048575F4944A7
:10FF9A000A0056657273696F6E3A2056300A005627
:10FFAA00657273696F6E3A2056310A00566572732C
:10FFBA00696F6E3A2056320A0056657273696F6E1F
:10FFCA003A2056330A000D0A577269746520436D48
:10FFDA0064000D0A5265616420436D64000A0D20B5
:10FFEA0053697A653A20002042797465730D0A00D4
:05FFFA000820080000D2
:020000040001F9
:10000000000E0601C86F000EC96F000ECA6F000E09
:10001000CB6F000EB16F000EE96F000EEA6F000E9D
:10002000EB6F000EEC6F000EA56F000EA66F000EBA
:10003000A76F000EA86F000EAD6F000EAE6F000E22
:10004000AF6F000EB06F000EB26F000EB36F000EF8
:10005000B46F000EB56F000EBC6F000EBD6F000ECA
:10006000BE6F000EBF6F000EA96F000EAA6F000ECC
:10007000AB6F000EAC6F83EF83F0000E0601AD6F27
:10008000000EAE6F000EAF6F000EB06FCEEF82F0BD
:10009000060E86ECA6F0000E3D6E000E3E6E000EC3
:1000A0003F6E000E406ED4EF83F0060E86ECA6F095
:1000B000010E0601A96F000EAA6F000EAB6F000EB5
:1000C000AC6FB5EF83F0FF0EBC15416E000EBD1591
:1000D000426E000EBE15436E000EBF15446E01C683
:1000E00045F5466A476A486A415045180FE1425053
:1000F00046180CE14350471809E144504818D8B459
:1001000084EF80F086EF80F0A7EF80F0150E86EC8C
:10011000A6F0D60E066E070E076E000E096E000ED4
:10012000086E000E0B6E0A0E0A6E57ECA3F0D60E88
:10013000136E070E146EBCC615F5BDC616F5BEC609
:1001400017F5BFC618F56AEC96F0B5EF83F0BC5111
:10015000BD11BE11BF11D8A4B0EF80F0B2EF80F096
:10016000B7EF81F00351D8B4B8EF80F0BAEF80F068
:10017000A1EF81F0000ECC6F000ECD6F000ECE6FA0
:10018000000ECF6F030EC26F060EC36FDCEF80F060
:10019000C2C6D9F4C3C6DAF4000ECC25E16E0C0E4B
:1001A000CD21E26EDFC4E7F4C24BC32B010ECC2796
:1001B000000ECD23CE23CF23C2C6D9F4C3C6DAF4B2
:1001C000DF50D8B4E6EF80F0E8EF80F0F6EF80F093
:1001D000CFBFF4EF80F0CF51CE1108E1CD05D8A00C
:1001E000F4EF80F0F6EF80F0C8EF80F0000ECC2541
:1001F000D96E0C0ECD21DA6EDF6A010ECC27000E0F
:10020000CD23CE23CF23000ECC6F000ECD6F000E7A
:10021000CE6F000ECF6FC24BC32B23EF81F0C2C64F
:10022000D9F4C3C6DAF4950ECC25E16E060ECD21C5
:10023000E26EDFC4E7F4C24BC32B010ECC27000EE5
:10024000CD23CE23CF23C2C6D9F4C3C6DAF4200E01
:10025000DE18D8B42EEF81F030EF81F040EF81F05E
:10026000CFBF3EEF81F0CF51CE11CD1109E1100E7D
:10027000CC5DD8A03EEF81F040EF81F00FEF81F030
:10028000950ECC25D96E060ECD21DA6EDF6A010EF1
:10029000CC27000ECD23CE23CF23950E126E060E53
:1002A000136EC80E146E060E156ED5EC83F00601A3
:1002B000CB510CE1C805000EC959010ECA59D8A08E
:1002C00064EF81F066EF81F072EF81F0180E86EC3A
:1002D000A6F0180E86ECA6F03D683E683F684068C0
:1002E000D4EF83F0000EC16F000EC06FC105D8A01F
:1002F0007CEF81F07EEF81F080EF81F099EF81F06B
:10030000C051426E416A41C506F542C507F5086A0B
:100310003BECA2F0E7ECA5F00009D8A492EF81F045
:1003200094EF81F08AEF81F00601C04BC12B76EF8C
:1003300081F0060E86ECA6F0430E86ECA6F0BDEF2B
:1003400082F0060E86ECA6F0010E0601A96F000EE3
:10035000AA6F000EAB6F000EAC6F010EA56F000E02
:10036000A66F000EA76F000EA86FB5EF83F0000E0A
:10037000E56F000EE66F000EE76F000EE86F000EEF
:10038000B86F000EB96F000EBA6F000EBB6F98EF1A
:1003900082F0B851B911BA11BB11D8B4D2EF81F0C3
:1003A000D4EF81F0F9EF81F03F0EE915416E000EB8
:1003B000EA15426E000EEB15436E000EEC15446E0E
:1003C0004150421043104410D8A4E9EF81F0EBEF04
:1003D00081F0F9EF81F0800E066E090E076E000EB7
:1003E000086EC00EE925096EFF0EEA210A6E49EC7F
:1003F0009CF00601C851E95DC951EA59CA51EB594F
:10040000CB51EC59D8B007EF82F009EF82F0BAEF88
:1004100082F0C451B85DC551B959C651BA59BB51E2
:10042000800A416EC751800A4158D8A01AEF82F065
:100430001CEF82F01EEF82F0BAEF82F0030EE5258A
:10044000416E000EE621426E000E4124D96E060E6A
:100450004220DA6E3F0EE915436E000EEA15446E37
:10046000800E4324E16E090E4420E26EDFC4E7F4FF
:10047000040EE525416E000EE621426E000E412479
:10048000D96E060E4220DA6E3F0EE915436E000E5D
:10049000EA15446E810E4324E16E090E4420E26E9B
:1004A000DFC4E7F4050EE525416E000EE621426E3D
:1004B000000E4124D96E060E4220DA6E3F0EE91579
:1004C000436E000EEA15446E820E4324E16E090E5F
:1004D0004420E26EDFC4E7F4060EE525416E000E0F
:1004E000E621426E000E4124D96E060E4220DA6EDD
:1004F0003F0EE915436E000EEA15446E830E432449
:10050000E16E090E4420E26EDFC4E7F4040EE92731
:10051000000EEA23EB23EC23040EE527000EE6236E
:10052000E723E823040EB827000EB923BA23BB2320
:10053000B851C45DB951C559BA51C659C751800A9D
:10054000416EBB51800A4158D8A0A9EF82F0ABEFB1
:1005500082F0BAEF82F0E951C85DEA51C959EB5116
:10056000CA59EC51CB59D8B0B8EF82F0BAEF82F04B
:10057000C9EF81F0060E86ECA6F0010E0601BC273D
:10058000000EBD23BE23BF23010EB26F000EB36F5A
:10059000000EB46F000EB56FB5EF83F0C4C641F521
:1005A000C5C642F5C6C643F5C7C644F54450000A61
:1005B000D8B4FDEF82F0FF0AD8B404EF83F063EF04
:1005C00080F04250000AD8B4E8EF82F063EF80F088
:1005D0004150000AD8B455EF80F063EF80F04250EC
:1005E000FF0AD8B4F6EF82F063EF80F04150FF0AC3
:1005F000D8B448EF80F063EF80F04350000AD8B4DD
:10060000E1EF82F063EF80F04350FF0AD8B4EFEFE0
:1006100082F063EF80F0180E86ECA6F0180E86ECE0
:10062000A6F0FD0E3D6EFF0E3E6EFF0E3F6EFF0EFE
:10063000406ED4EF83F00601B251B311B411B5117D
:10064000D8A425EF83F027EF83F051EF83F0430E1A
:1006500086ECA6F0000E0601B76F000EB66FB7BFAE
:100660003BEF83F0B75109E1020EB65DD8A03BEF36
:1006700083F03DEF83F03FEF83F046EF83F09DEC96
:10068000A0F00601B64BB72B2FEF83F0B12B180E5D
:10069000B1654DEF83F04FEF83F0B5EF83F04BEF93
:1006A00080F0B5BF5EEF83F0B551B411B31108E12E
:1006B000B205D8A05EEF83F060EF83F066EF83F0C1
:1006C000010EAD27000EAE23AF23B023B0BF74EFF1
:1006D00083F0B051AF11AE1109E1110EAD5DD8A09C
:1006E00074EF83F076EF83F07EEF83F0180E86ECE4
:1006F000A6F0180E86ECA6F04BEF80F0430E86ECC9
:10070000A6F0B5EF83F0000E2C6E060E2D6EC40E13
:100710002E6E060E2F6E000E306E010E316E000E24
:10072000326E000E336E03EC92F02F50000AD8B4F4
:10073000AEEF83F01BEF83F02D50000AD8B4A3EF87
:1007400083F01BEF83F02C50000AD8B43DEF80F00B
:10075000010AD8B40BEF83F01BEF83F02E50000A90
:10076000D8B49CEF83F01BEF83F00601A951AA11C6
:10077000AB11AC11D8B4BFEF83F0C1EF83F083EFBE
:1007800083F0A551A611A711A811D8B4CAEF83F020
:10079000CCEF83F02BEF80F0C8C63DF5C9C63EF51F
:1007A000CAC63FF5CBC640F51200000E1E6E000E05
:1007B0001F6E000E206E000E216E000E226E000EC7
:1007C000236E000E246E000E256E12C5D9F413C5DB
:1007D000DAF4300EDE18D8A4F0EF83F0F2EF83F0F5
:1007E00065EF85F020EE01F01250D9261350DA2281
:1007F000780EDE18D8B4FFEF83F001EF84F010EF2D
:1008000084F020EE01F01250D9261350DA22580E4F
:10081000DE18D8A40EEF84F010EF84F065EF85F0B9
:1008200020EE02F01250D9261350DA22DF50D8A45D
:100830001CEF84F01EEF84F028EF84F0000E126E9F
:10084000000E136E000E146E000E156E97EF86F0FC
:10085000020E266E000E276E000E286E000E296E08
:1008600026501224D96E27501320DA6EDF50D8A4F8
:100870003CEF84F03EEF84F054EF84F014C5D9F4DB
:1008800015C5DAF422C5DEF423C5DEF424C5DEF492
:1008900025C5DEF4010E1E6E000E1F6E000E206ECA
:1008A000000E216E4EEF85F026501224D96E27508F
:1008B0001320DA6E400EDF6460EF84F062EF84F0A4
:1008C00070EF84F026501224D96E27501320DA6E70
:1008D000460EDF646EEF84F070EF84F0A8EF84F0D2
:1008E00026501224D96E27501320DA6E600EDF6472
:1008F0007CEF84F07EEF84F08CEF84F0265012249D
:10090000D96E27501320DA6E660EDF648AEF84F00A
:100910008CEF84F0A8EF84F026501224D96E275073
:100920001320DA6E2F0EDF6498EF84F09AEF84F0D4
:1009300031EF85F026501224D96E27501320DA6E3D
:100940003A0EDF60A6EF84F0A8EF84F031EF85F077
:1009500026501224D96E27501320DA6E2F0EDF6432
:10096000B4EF84F0B6EF84F0C4EF84F02650122484
:10097000D96E27501320DA6E390EDF64C2EF84F08F
:10098000C4EF84F004EF85F026501224D96E27506E
:100990001320DA6E400EDF64D0EF84F0D2EF84F0E3
:1009A000E0EF84F026501224D96E27501320DA6E1F
:1009B000460EDF64DEEF84F0E0EF84F0F0EF84F0C9
:1009C00026501224D96E27501320DA6EDF50166E8F
:1009D000A90E16241C6E1D6AFF0E1D22FEEF84F068
:1009E00026501224D96E27501320DA6EDF50166E6F
:1009F000C90E16241C6E1D6AFF0E1D221CC51AF599
:100A00001DC51BF512EF85F026501224D96E275014
:100A10001320DA6EDF50166ED00E16241A6E1B6A83
:100A2000FF0E1B2222C516F523C517F524C518F5A0
:100A300025C519F5040ED89016361736183619360E
:100A4000E82E1BEF85F01A501624226E1B5017203B
:100A5000236E000E1820246E000E1920256E3BEF29
:100A600085F0000E1E6E000E1F6E000E206E000E32
:100A7000216E4EEF85F0010E2626000E2722282239
:100A8000292229502810271009E10B0E265CD8A036
:100A90004CEF85F04EEF85F030EF84F029502810B0
:100AA000271009E10B0E265CD8A059EF85F05BEF0B
:100AB00085F08FEF86F0000E1E6E000E1F6E000E8A
:100AC000206E000E216E8FEF86F0000E266E000E57
:100AD000276E000E286E000E296E26501224D96E45
:100AE00027501320DA6EDF50D8A479EF85F07BEF22
:100AF00085F091EF85F014C5D9F415C5DAF422C557
:100B0000DEF423C5DEF424C5DEF425C5DEF4010ED3
:100B10001E6E000E1F6E000E206E000E216E80EF06
:100B200086F026501224D96E27501320DA6E6B0EF1
:100B3000DE18D8B49EEF85F0A0EF85F0AFEF85F01A
:100B400026501224D96E27501320DA6E4B0EDE1871
:100B5000D8A4ADEF85F0AFEF85F0D5EF85F0265046
:100B6000271028102910D8B4B8EF85F0BAEF85F017
:100B7000D5EF85F022C516F523C517F524C518F560
:100B800025C519F50A0ED8901636173618361936B7
:100B9000E82EC3EF85F016C522F517C523F518C555
:100BA00024F519C525F57BEF85F026501224D96E62
:100BB00027501320DA6E6D0EDE18D8B4E2EF85F000
:100BC000E4EF85F0F3EF85F026501224D96E27501C
:100BD0001320DA6E4D0EDE18D8A4F1EF85F0F3EF96
:100BE00085F019EF86F02650271028102910D8B468
:100BF000FCEF85F0FEEF85F019EF86F022C516F5C3
:100C000023C517F524C518F525C519F5140ED89078
:100C10001636173618361936E82E07EF86F016C541
:100C200022F517C523F518C524F519C525F57BEF61
:100C300085F026501224D96E27501320DA6E2F0E1D
:100C4000DF6425EF86F027EF86F063EF86F026500D
:100C50001224D96E27501320DA6E3A0EDF6033EF7C
:100C600086F035EF86F063EF86F026501224D96EB9
:100C700027501320DA6EDF50166ED00E1624176E32
:100C8000186AFF0E182222C506F523C507F524C5EC
:100C900008F525C509F50A0E0A6E000E0B6E000E4A
:100CA0000C6E000E0D6E34ECA0F017500624226E70
:100CB00018500720236E000E0820246E000E092015
:100CC000256E6DEF86F0000E1E6E000E1F6E000E7C
:100CD000206E000E216E80EF86F0010E2626000E9B
:100CE00027222822292229502810271009E10B0E3B
:100CF000265CD8A07EEF86F080EF86F06DEF85F061
:100D000029502810271009E10B0E265CD8A08BEF84
:100D100086F08DEF86F08FEF86F05BEF85F01EC5D5
:100D200012F51FC513F520C514F521C515F51200E0
:100D30003050800B396E305030243B6E2FAEA3EF15
:100D400086F0A5EF86F0A6EF86F03B803B50D8B446
:100D5000ACEF86F0AEEF86F0C3EF86F03B28D8A468
:100D6000B4EF86F0B6EF86F0BEEF86F0000E2D6E83
:100D7000000E2E6E000E2F6E000E306E2F8E000EA7
:100D8000306ECBEF86F0000E2D6E000E2E6E000E34
:100D90002F6E000E306E3450800B3A6E39503A1878
:100DA000D8B4D5EF86F0D7EF86F0D8EF86F0398C3F
:100DB000345034243A6E33AEE0EF86F0E2EF86F042
:100DC000E3EF86F03A803A50D8B4E9EF86F0EBEFE3
:100DD00086F000EF87F03A28D8A4F1EF86F0F3EF21
:100DE00086F0FBEF86F0000E316E000E326E000EC4
:100DF000336E000E346E338E000E346E08EF87F0C3
:100E0000000E316E000E326E000E336E000E346E28
:100E10003B503A5CD8B00FEF87F011EF87F038EF16
:100E200087F039AC16EF87F018EF87F01AEF87F0EC
:100E3000800E391A3BC53CF53AC53BF53CC53AF541
:100E40002DC53CF531C52DF53CC531F52EC53CF51C
:100E500032C52EF53CC532F52FC53CF533C52FF50F
:100E60003CC533F530C53CF534C530F53CC534F5EB
:100E7000000E3C6E3B503AC535F5366A355E000EC5
:100E8000365A36BE4DEF87F0365009E11A0E355C02
:100E9000D8A04DEF87F04FEF87F086EF87F02D5009
:100EA0002E102F103010D8A458EF87F05BEF87F08A
:100EB000010E5CEF87F0000E3C6E000E2D6E000EF2
:100EC0002E6E000E2F6E000E306E3AC53BF58FEF82
:100ED00087F03CA06EEF87F070EF87F076EF87F039
:100EE000D8903C3001093C6E78EF87F0D8903C32C6
:100EF0002DA07DEF87F07FEF87F080EF87F03C8EAD
:100F0000303430322F322E322D323B2A3A503B5C75
:100F1000D8A08DEF87F08FEF87F069EF87F039BCAD
:100F200094EF87F096EF87F0D6EF87F03B50D8A488
:100F30009CEF87F09EEF87F0A8EF87F0000E2D6EF4
:100F4000000E2E6E000E2F6E000E306EF7EF88F042
:100F500031502D2632502E2233502F223450302241
:100F600030A0B5EF87F0B7EF87F063EF88F03CA0D3
:100F7000BCEF87F0BEEF87F0C4EF87F0D8903C302D
:100F800001093C6EC6EF87F0D8903C322DA0CBEF24
:100F900087F0CDEF87F0CEEF87F03C8E30343032E3
:100FA0002F322E322D323B2A63EF88F031502D5CE8
:100FB00032502E5833502F583050800A356E3450EE
:100FC000800A3558D8B0E7EF87F0E9EF87F014EFE3
:100FD00088F02D50315C356E2E503258366E2F50C1
:100FE0003358376E30503458386EFF0E35242D6E1E
:100FF000FF0E36202E6EFF0E37202F6EFF0E38208C
:10100000306E800E391A3C6C3C50D8A40AEF88F040
:101010000CEF88F01CEF88F0010E2D26000E2E221A
:101020002F2230221CEF88F031502D5E32502E5A84
:1010300033502F5A3450305A2D502E102F1030105C
:10104000D8A425EF88F027EF88F05CEF88F03C50BB
:10105000D8A42DEF88F02FEF88F05CEF88F0000E19
:101060002D6E000E2E6E000E2F6E000E306EF7EFFE
:1010700088F0D8902D362E362F3630363CAE43EFE2
:1010800088F045EF88F046EF88F02D803CA04BEFCC
:1010900088F04DEF88F051EF88F0D8803C3653EF60
:1010A00088F0D8903C363B50D8B459EF88F05BEFCD
:1010B00088F05CEF88F03B062FAE61EF88F063EFBD
:1010C00088F039EF88F0000E3A6E3CAE6AEF88F097
:1010D0006CEF88F084EF88F03CC535F57F0E35164F
:1010E000D8B475EF88F077EF88F07BEF88F0010EC9
:1010F0003A6E84EF88F02DA080EF88F082EF88F0C0
:1011000084EF88F077EF88F03A50D8B48AEF88F00F
:101110008CEF88F0B7EF88F0010E2D26000E2E22FE
:101120002F22302230A097EF88F099EF88F0B7EFA8
:1011300088F02DC535F52EC536F52FC537F530C5E8
:1011400038F53834383237323632353235C52DF548
:1011500036C52EF537C52FF538C530F53B28D8B440
:10116000B4EF88F0B6EF88F0B7EF88F03B2A3B2861
:10117000D8B4BDEF88F0BFEF88F0C7EF88F03B50E0
:10118000D8A4C5EF88F0C7EF88F0D9EF88F0000E3B
:101190002D6E000E2E6E000E2F6E000E306E3B5028
:1011A000D8A4D5EF88F0D7EF88F0D9EF88F0000EFB
:1011B000396E3BA0DEEF88F0E0EF88F0E3EF88F0D7
:1011C0002F8EE4EF88F02F9ED8903B30306E39AEF2
:1011D000ECEF88F0EEEF88F0EFEF88F0308E2DC561
:1011E0002DF52EC52EF52FC52FF530C530F5120083
:1011F0001750800B206E17501724266E16AE03EF83
:1012000089F005EF89F006EF89F026802650D8B4E2
:101210000CEF89F00EEF89F021EF89F02628D8A491
:1012200014EF89F016EF89F01EEF89F0000E146EAE
:10123000000E156E000E166E000E176E168E29EF3C
:1012400089F0000E146E000E156E000E166E000E64
:10125000176E1B50800B201A1B501B24256E1AAED4
:1012600034EF89F036EF89F037EF89F0258025508B
:10127000D8B43DEF89F03FEF89F052EF89F025288F
:10128000D8A445EF89F047EF89F04FEF89F0000EC1
:10129000186E000E196E000E1A6E000E1B6E1A8E5E
:1012A0005AEF89F0000E186E000E196E000E1A6EBD
:1012B000000E1B6E2550D8B460EF89F062EF89F004
:1012C0006AEF89F02650D8A468EF89F06AEF89F0B8
:1012D00074EF89F0000E146E000E156E000E166E7F
:1012E000000E176E0CEF8BF01A501402F3C42BF59E
:1012F000F4C42CF52B50216E226A236A246A2C50E8
:10130000276E286A296A2A6A19501502F3C42BF538
:10131000F4C42CF52B502126000E22222322242255
:101320002C502726000E282229222A221850160285
:10133000F3C42BF5F4C42CF52B502126000E2222E9
:10134000232224222C502726000E282229222A225A
:1013500023C524F522C523F521C522F5216A18509D
:101360001502F3C42BF5F4C42CF52B5021262C5078
:101370002222000E2322000E242219501402F3C44C
:101380002BF5F4C42CF52B5021262C502222000ED4
:101390002322000E242223C524F522C523F521C5CE
:1013A00022F5216A18501402F3C42BF5F4C42CF56D
:1013B0002B5021262C502222000E2322000E242204
:1013C0001A501502F3C42BF5F4C42CF52B50272624
:1013D0002C502822000E2922000E2A221950160213
:1013E000F3C42BF5F4C42CF52B5027262C502822BF
:1013F000000E2922000E2A221A501602F3C42BF5E1
:10140000F4C42CF52B501C6E2C501D6E1E6A1F6AE6
:101410001EC51FF51DC51EF51CC51DF51C6A1C50FB
:1014200027261D5028221E5029221F502A2221C55E
:101430001CF522C51DF523C51EF524C51FF5190E83
:1014400027EF8AF0D8901F321E321D321C32E82E50
:1014500022EF8AF01C5027261D5028221E502922D8
:101460001F502A2223C524F522C523F521C522F5C4
:10147000216A255026C51CF51D6A1C26000E1D225A
:10148000820E1C242B6EFF0E1D202C6E5DEF8AF049
:10149000D8902736283629362A3624AE52EF8AF0DD
:1014A00054EF8AF055EF8AF02780D8902136223603
:1014B000233624362B06D8A02C0629AE62EF8AF0FC
:1014C00064EF8AF048EF8AF0000E256E24AE6BEFD1
:1014D0008AF06DEF8AF091EF8AF0FF0E21141C6EF6
:1014E000FF0E22141D6EFF0E23141E6E7F0E241499
:1014F0001F6E1C501D101E101F10D8B482EF8AF0F2
:1015000084EF8AF088EF8AF0010E256E91EF8AF061
:1015100027A08DEF8AF08FEF8AF091EF8AF084EFA9
:101520008AF02550D8B497EF8AF099EF8AF0BDEF92
:101530008AF0010E2726000E282229222A222AA01C
:10154000A4EF8AF0A6EF8AF0BDEF8AF027C51CF55C
:1015500028C51DF529C51EF52AC51FF51F341F32E4
:101560001E321D321C321CC527F51DC528F51EC5AF
:1015700029F51FC52AF52B4A2C2A2CBEC8EF8AF064
:101580002C5008E12B28D8A0C8EF8AF0CAEF8AF0C7
:10159000D4EF8AF0000E276E000E286E800E296EA2
:1015A0007F0E2A6E02EF8BF02CBEE1EF8AF02C50FA
:1015B00006E12B04D8B0DFEF8AF0E1EF8AF0EDEF1F
:1015C0008AF0000E276E000E286E000E296E000EA7
:1015D0002A6E000E206E02EF8BF02BC526F5FF0E53
:1015E0002716FF0E28167F0E2916000E2A1626A093
:1015F000FCEF8AF0FEEF8AF0FFEF8AF0298ED89098
:1016000026302A6E20502A1227C514F528C515F554
:1016100029C516F52AC517F5120021EEE8F1070EC7
:10162000DE6AE806FDE240C7E8F541C7E9F542C7D2
:10163000EAF543C7EBF540C7ECF541C7EDF542C706
:10164000EEF543C7EFF521EEB8F11F0EDE6AE806AE
:10165000FDE260C7B8F561C7B9F562C7BAF563C7FF
:10166000BBF5000E0501BC6F000EBD6F000EBE6F16
:10167000000EBF6F44C7C0F545C7C1F546C7C2F5E8
:1016800047C7C3F554C7C4F555C7C5F556C7C6F512
:1016900057C7C7F558C7C8F559C7C9F55AC7CAF5D6
:1016A0005BC7CBF5000ECC6F000ECD6F000ECE6F7A
:1016B000000ECF6F000ED06F000ED16F000ED26FF4
:1016C000000ED36F000ED46F000ED56F000ED66FD4
:1016D000000ED76F21EED8F10F0EDE6AE806FDE2AC
:1016E000D869D969F70EDA6F430EDB6F000EDC6F35
:1016F000000EDD6F000EDE6F000EDF6F40C7E0F5FD
:1017000041C7E1F542C7E2F543C7E3F540C7E4F559
:1017100041C7E5F542C7E6F543C7E7F5FAC6B0F5B8
:10172000FBC6B1F5FCC6B2F5FDC6B3F5000EB46F4D
:10173000000EB56F000EB66F000EB76F2FC5D9F44F
:1017400030C5DAF4C00EDE18D8A4A9EF8BF0ABEFE9
:101750008BF012EF8DF031502F24326E000E3020BE
:10176000336EFF0E3224D96EFF0E3320DA6EC00EB8
:10177000DE18D8A4BEEF8BF0C0EF8BF012EF8DF027
:10178000020E2F24066E000E3020076E3150FC0F23
:10179000086EFEEC9FF00501F06F31502F24326E81
:1017A000000E3020336EFE0E3224D96EFF0E332031
:1017B000DA6EF051DE18D8A4E0EF8BF0E2EF8BF098
:1017C000FFEF8CF020EE02F02F50D9263050DA22B5
:1017D000DF50F16F20EE03F02F50D9263050DA227F
:1017E000DF50326E3250346E336A20EE04F02F50E8
:1017F000D9263050DA22DF50356E35503310F46F71
:101800003450F56F03EF8DF0DC0E296EFF0E2A6E5B
:10181000EAECA4F0480E296EFE0E2A6EF4C52BF5F4
:10182000F5C52CF5EAECA4F0C2ECA4F02A0E326E59
:101830008E0EE82EFED7322EFCD7090E3118D8A412
:1018400024EF8CF026EF8CF030EF8CF0E80E0C6E6D
:10185000050E0D6E080E0E6EEBEC93F012EF8DF090
:101860000D0E3118D8A437EF8CF039EF8CF043EF20
:101870008CF0D80E0C6E050E0D6E100E0E6EEBEC8D
:1018800093F012EF8DF0070E3118D8A44AEF8CF0C8
:101890004CEF8CF012EF8DF005019E05D8A453EFAC
:1018A0008CF055EF8CF05FEF8CF0B00E0C6E050EE7
:1018B0000D6E040E0E6EEBEC93F012EF8DF0B40E85
:1018C0000C6E050E0D6E040E0E6EEBEC93F012EF27
:1018D0008DF0D00E296EFF0E2A6EEAECA4F0480EB1
:1018E000296EFE0E2A6EF4C52BF5F5C52CF5EAEC33
:1018F000A4F0C2ECA4F0880E0501F41907E1020E71
:10190000F519D8A486EF8CF088EF8CF012EF8DF0EB
:1019100020EE08F02F50D9263050DA22DF50F26F37
:1019200020EE05F02F50D9263050DA22DF50F36F29
:101930002A0E326E8E0EE82EFED7322EFCD705010F
:10194000F2A1A5EF8CF0A7EF8CF0B1EF8CF0F3AF24
:10195000ACEF8CF0AEEF8CF0B1EF8CF0C18AC1EF40
:101960008CF0F2A1B6EF8CF0B8EF8CF0C1EF8CF0F8
:10197000F351D8A4BEEF8CF0C0EF8CF0C1EF8CF027
:10198000C19AE80E0C6E050E0D6E000E0E6EEBEC9D
:1019900093F012EF8DF06C0E296EFF0E2A6EEAECBA
:1019A000A4F0480E296EFE0E2A6EF4C52BF5F5C57F
:1019B0002CF5EAECA4F0C2ECA4F0100E0501F41929
:1019C000F511D8A4E6EF8CF0E8EF8CF012EF8DF073
:1019D0002A0E326E8E0EE82EFED7322EFCD7B80EAF
:1019E0000C6E050E0D6E200E0E6EEBEC93F012EFEA
:1019F0008DF0F90E296EFE0E2A6EEAECA4F0AEEC24
:101A0000A4F012EF8DF0F151100AD8B404EF8CF06D
:101A1000010AD8B469EF8CF0310AD8B4CBEF8CF05E
:101A2000F9EF8CF01200980E416EF60E426E1D0E0C
:101A3000436EBE0E446EA00E456EA60E466E260E7A
:101A4000476EBE0E486E140E4D6E940E4E6E4D0EC9
:101A50004F6E400E506ECD0E496ECC0E4A6ECC0EBF
:101A60004B6E3D0E4C6E49C518F54AC519F54BC570
:101A70001AF54CC51BF56EC73DF56FC73EF570C72F
:101A80003FF5406A3FBE40683DC506F53EC507F5D7
:101A90003FC508F540C509F5010EC9EC94F006C52F
:101AA00014F507C515F508C516F509C517F5F8ECC1
:101AB00088F014C52DF515C52EF516C52FF517C5DB
:101AC00030F5000E316E800E326E090E336EC50E8B
:101AD000346E98EC86F02DC551F52EC552F52FC504
:101AE00053F530C554F551C506F552C507F553C534
:101AF00008F554C509F5F0EC98F006C508F707C5D8
:101B000009F708C50AF709C50BF774C73DF575C78E
:101B10003EF576C73FF5406A3FBE40683DC506F5D5
:101B20003EC507F53FC508F540C509F5010EC9ECEE
:101B300094F006C514F507C515F508C516F509C5D1
:101B400017F541C518F542C519F543C51AF544C541
:101B50001BF5F8EC88F014C551F515C552F516C5FE
:101B600053F517C554F551C506F552C507F553C5CC
:101B700008F554C509F5F0EC98F006C510F707C54F
:101B800011F708C512F709C513F777C73DF578C7F0
:101B90003EF579C73FF5406A3FBE40683DC506F552
:101BA0003EC507F53FC508F540C509F5010EC9EC6E
:101BB00094F006C514F507C515F508C516F509C551
:101BC00017F545C518F546C519F547C51AF548C5B1
:101BD0001BF5F8EC88F014C551F515C552F516C57E
:101BE00053F517C554F551C506F552C507F553C54C
:101BF00008F554C509F5F0EC98F006C514F707C5CB
:101C000015F708C516F709C517F780C73DF581C751
:101C10003EF582C73FF5406A3FBE40683DC506F5C8
:101C20003EC507F53FC508F540C509F5010EC9ECED
:101C300094F006C514F507C515F508C516F509C5D0
:101C400017F54DC518F54EC519F54FC51AF550C510
:101C50001BF5F8EC88F014C551F515C552F516C5FD
:101C600053F517C554F551C506F552C507F553C5CB
:101C700008F554C509F5F0EC98F006C520F707C53E
:101C800021F708C522F709C523F78CC73DF58DC795
:101C90003EF58EC73FF5406A3FBE40683DC506F53C
:101CA0003EC507F53FC508F540C509F5010EC9EC6D
:101CB00094F006C514F507C515F508C516F509C550
:101CC00017F54DC518F54EC519F54FC51AF550C590
:101CD0001BF5F8EC88F014C551F515C552F516C57D
:101CE00053F517C554F551C506F552C507F553C54B
:101CF00008F554C509F5F0EC98F006C530F707C5AE
:101D000031F708C532F709C533F783C73DF584C7F6
:101D10003EF585C73FF5406A3FBE40683DC506F5C4
:101D20003EC507F53FC508F540C509F5010EC9ECEC
:101D300094F006C514F507C515F508C516F509C5CF
:101D400017F54DC518F54EC519F54FC51AF550C50F
:101D50001BF5F8EC88F014C551F515C552F516C5FC
:101D600053F517C554F551C506F552C507F553C5CA
:101D700008F554C509F5F0EC98F006C524F707C539
:101D800025F708C526F709C527F786C73DF587C794
:101D90003EF588C73FF5406A3FBE40683DC506F541
:101DA0003EC507F53FC508F540C509F5010EC9EC6C
:101DB00094F006C514F507C515F508C516F509C54F
:101DC00017F54DC518F54EC519F54FC51AF550C58F
:101DD0001BF5F8EC88F014C551F515C552F516C57C
:101DE00053F517C554F551C506F552C507F553C54A
:101DF00008F554C509F5F0EC98F006C528F707C5B5
:101E000029F708C52AF709C52BF78EEC9FF01200B9
:101E1000000E0501C06F000EB66FFC0EBE6FFF0E08
:101E2000BF6F680000F0B7F5B7C506F5076A000E8A
:101E3000096E0A0E086E87EC9BF006500501B86F1C
:101E4000B851F60DF350B725B46F000EB96F020EFE
:101E5000B56F880EBA6F130EBB6F000EBC6F000E0D
:101E6000BD6FF00E076E5F0E066E85ECA4F0A3EC5E
:101E7000A6F0C00E0C6E050E0D6EF6ECA2F00C0472
:101E80000D100E100F10D8A448EF8FF04AEF8FF00E
:101E900060EF8FF00D0E0501C019D8A452EF8FF03E
:101EA00054EF8FF060EF8FF0B62B030EB619D8A465
:101EB0005CEF8FF05EEF8FF060EF8FF07DEF8FF0D3
:101EC000FDECA5F00009D8B468EF8FF06AEF8FF051
:101ED00060EF8FF0A0ECA6F00501BA07000EBB5B27
:101EE000BC5BBD5BBA51BB11BC11BD11D8A47BEF6B
:101EF0008FF07DEF8FF037EF8FF0A0ECA6F00501AB
:101F0000BA51BB11BC11BD11D8A489EF8FF08BEF72
:101F10008FF0AFEF8FF0BEC5D9F4BFC5DAF4EF0E86
:101F2000DE180DE1BE0EDE180AE1AD0EDE1807E187
:101F3000DE0EDE18D8A49FEF8FF0A1EF8FF0A9EF8F
:101F40008FF0000E076E000E066E9DECA6F0AFEF50
:101F50008FF0BE0E116EFB0E126ED0ECA0F0610E73
:101F6000116EFD0E126ED0ECA0F02B0E116EFC0E59
:101F7000126ED0ECA0F0850E116EFC0E126ED0EC3D
:101F8000A0F0B10E116EFC0E126ED0ECA0F0DD0EC2
:101F9000116EFC0E126ED0ECA0F0090E116EFD0E4B
:101FA000126ED0ECA0F0350E116EFD0E126ED0EC5C
:101FB000A0F0E9EC9BF00501C06F310EC019D8A468
:101FC000E4EF8FF0E6EF8FF01AEF90F0240E116E31
:101FD000FF0E126ED0ECA0F0A3EC95F0BEC5D9F4C4
:101FE000BFC5DAF4EF0EDE180DE1BE0EDE180AE111
:101FF000AD0EDE1807E1DE0EDE18D8A402EF90F079
:1020000004EF90F012EF90F0000E116EFE0E126EC3
:10201000D0ECA0F0840E116EFD0E126ED0ECA0F08C
:10202000A1EF8FF0BE0E116EFB0E126ED0ECA0F081
:10203000AFEF8FF0320EC019D8B421EF90F023EF3C
:1020400090F02CEF90F0C00EC019D8A42AEF90F0B9
:102050002CEF90F058EF90F0BEC5D9F4BFC5DAF47C
:10206000EF0EDE180DE1BE0EDE180AE1AD0EDE1831
:1020700007E1DE0EDE18D8A440EF90F042EF90F0BA
:1020800050EF90F0000E116EFE0E126ED0ECA0F02C
:10209000840E116EFD0E126ED0ECA0F0A1EF8FF049
:1020A000BE0E116EFB0E126ED0ECA0F0AFEF8FF0F3
:1020B000330EC019D8A45FEF90F061EF90F073EF8A
:1020C00090F05B0E116EFF0E126ED0ECA0F00501C9
:1020D000B851300FD6ECA4F00501B451300FD6EC56
:1020E000A4F0AFEF8FF0340EC019D8A47AEF90F0BF
:1020F0007CEF90F08EEF90F0490E116EFF0E126E95
:10210000D0ECA0F00501B951300FD6ECA4F00501D8
:10211000B551300FD6ECA4F0AFEF8FF0C029D8A4A2
:1021200094EF90F096EF90F0C8EF90F0F60E116EED
:10213000FB0E126ED0ECA0F0BEC5D9F4BFC5DAF428
:10214000EF0EDE180DE1BE0EDE180AE1AD0EDE1850
:1021500007E1DE0EDE18D8A4B0EF90F0B2EF90F0F9
:10216000C0EF90F0000E116EFE0E126ED0ECA0F0DB
:10217000840E116EFD0E126ED0ECA0F0A1EF8FF068
:10218000BE0E116EFB0E126ED0ECA0F0AFEF8FF012
:10219000060E116EFB0E126ED0ECA0F0AFEF8FF0BA
:1021A0001200000E4C6E000E496E000E4D6E21EEB8
:1021B00039F10F0EDE6AE806FDE2000E4B6E000EEE
:1021C0005A24086E096A090E0922DBECA3F04A6E54
:1021D0004A505A26060E5A64F0EF90F0F2EF90F053
:1021E000F0EF91F0000E4F6E000E4E6EDEEF91F0AC
:1021F000000E4E24D96E090E4F20DA6EC00EDE1886
:10220000D8A405EF91F007EF91F039EF91F04C5021
:10221000D8A40DEF91F00FEF91F039EF91F0010E8E
:102220004C6E000E4E24D96E090E4F20DA6E390E18
:102230004D24E16EE26A050EE222DFC4E7F44D2A86
:102240005A50366E376A4E50365E4F50375A37BE48
:1022500035EF91F0375007E1070E365CD8B033EF19
:1022600091F035EF91F0DCEF91F002EF92F0DCEFBE
:1022700091F04C50D8B43FEF91F041EF91F0B0EFB6
:1022800091F0000E4E24D96E090E4F20DA6EC00E6A
:10229000DE18D8A44EEF91F050EF91F07AEF91F064
:1022A000060E4D6056EF91F058EF91F07AEF91F0F5
:1022B000000E4D6E000E4E24D96E090E4F20DA6EC0
:1022C000DF50396E4D2A5A50366E376A4E50365EA0
:1022D0004F50375A37BE78EF91F0375007E1070E6D
:1022E000365CD8B076EF91F078EF91F0DCEF91F0BA
:1022F00002EF92F0000E4E24D96E090E4F20DA6ED6
:10230000C00EDE18D8A487EF91F089EF91F0B4EFFA
:1023100091F0050E4D648FEF91F091EF91F0B4EFD5
:1023200091F0000E4E24D96E090E4F20DA6E390E50
:102330004D24E16EE26A050EE222DFC4E7F44D2A85
:1023400005019D513A18D8A4A8EF91F0AAEF91F099
:10235000B0EF91F0010E496E4DC54BF5DCEF91F0F9
:1023600022ECA5F002EF92F0000E4E24D96E090E79
:102370004F20DA6EC00EDE18D8B4C1EF91F0C3EF73
:1023800091F037EF91F0000E4E24D96E090E4F20D8
:10239000DA6E390E4D24E16EE26A050EE222DFC4E8
:1023A000E7F44D2A0E0E4D64D8EF91F0DAEF91F07C
:1023B000DCEF91F0B0EF91F04E4A4F2A5A50366E52
:1023C000376A36504E5C4F50800A386E3750800A5C
:1023D0003858D8A0EEEF91F0F0EF91F0F8EF90F0D0
:1023E0004950D8B4F6EF91F0F8EF91F002EF92F087
:1023F00022ECA5F0390E2F6E050E306E4BC531F56F
:102400000DEC8BF012002EC5D9F42FC5DAF4DE6A7C
:10241000DE6ADE6ADD6A3C0E126E050E136E30C592
:1024200014F531C515F532C516F533C517F5A3EC0E
:102430009CF01250131014101510D8B422EF92F023
:1024400024EF92F074EF92F02C682D682E682F68BC
:1024500007EF93F0000E3B6E800E3A6E8FEF92F016
:10246000000E2C6E000E2D6E000E2E6E000E2F6EC6
:1024700007EF93F03C0E126E050E136E30C514F587
:1024800031C515F532C516F533C517F5A3EC9CF02B
:102490001250131014101510D8A451EF92F053EFEE
:1024A00092F024EF92F0180E3C18D8A45AEF92F054
:1024B0005CEF92F024EF92F02EC5D9F42FC5DAF438
:1024C000FF0EDE6EFF0EDE6EFF0EDE6EFF0EDD6EA9
:1024D00030EF92F0010E2C6E000E2D6E000E2E6E5F
:1024E000000E2F6E07EF93F03C50010AD8B42AEF8C
:1024F00092F0030AD8B42AEF92F0060AD8B430EF6B
:1025000092F01C0AD8B43AEF92F0590AD8B46AEFA4
:1025100092F0200AD8B46AEF92F024EF92F02CC522
:10252000D9F42DC5DAF43CC5DFF4D60E136E070ED0
:10253000146E800E156E000E166E000E176E000ED5
:10254000186E6AEC96F0000E396E010E386EC8EF08
:1025500092F038502C24126E39502D20136E30C555
:1025600014F531C515F532C516F533C517F5A3ECCD
:102570009CF01250131014101510D8B4C2EF92F042
:10258000C4EF92F0C6EF92F024EF92F0384A392A65
:10259000050E3A24346E000E3B20356E3450385C04
:1025A00035503958D8A0D7EF92F0D9EF92F0A9EF73
:1025B00092F020EE01F02C50D9262D50DA2210EEA8
:1025C00002F02C50E1262D50E222E750FF0A356E32
:1025D000DE503518D8B4EFEF92F0F1EF92F0F3EF50
:1025E00092F024EF92F03A50346E3B50356E366ADA
:1025F000376A2EC5D9F42FC5DAF434C5DEF435C5F3
:10260000DEF436C5DEF437C5DEF430EF92F01200AA
:1026100013C5D9F414C5DAF4DEC4F6F4DDC4F7F456
:10262000000EF86E0800F550250AD8A41AEF93F0B2
:102630001CEF93F0D4EF93F013C5D9F414C5DAF47A
:10264000DE2A000EDD22000E05018E6F000E8D6F5A
:102650008DC599F58F69906913C5D9F414C5DAF45D
:10266000DEC41EF5DDC41FF51EC5F6F41FC5F7F464
:10267000000EF86E0800F550780AD8A442EF93F0E7
:1026800044EF93F0CBEF93F015C5D9F416C5DAF407
:10269000DFC417F5020EDE26DFC418F5000EDD22BA
:1026A00017C5D9F418C5DAF4DEC419F5DDC41AF576
:1026B000010E1E24176E000E1F20186E13C5D9F4CC
:1026C00014C5DAF417C5DEF418C5DDF4BDEF93F0D8
:1026D000200E206E19500F0B1D6E0A0E1D6073EF39
:1026E00093F075EF93F079EF93F0300E1D267BEFAA
:1026F00093F0570E1D262006400E2024D96EDA6A6C
:10270000080EDA221DC5DFF4193A1A3A0F0E19160F
:102710001A50F00B19120F0E1A1619501A10D8B4BD
:1027200094EF93F096EF93F0B2EF93F02050D8A48B
:102730009CEF93F09EEF93F06AEF93F0B2EF93F07B
:10274000400E2024D96EDA6A080EDA22DF50176EA6
:102750001750086E096A11C50AF512C50BF522EC6F
:102760009BF0202A200E2018D8A4B9EF93F0BBEFDD
:1027700093F0A0EF93F0EAEF93F01EC5F6F41FC5B7
:10278000F7F4000EF86E0800F550780AD8B468EF38
:1027900093F0CBEF93F013C5D9F414C5DAF4DE2A25
:1027A000000EDD22EAEF93F013C5D9F414C5DAF474
:1027B000DEC4F6F4DDC4F7F4000EF86E0800F55040
:1027C000086E096A11C50AF512C50BF522EC9BF0DB
:1027D000CBEF93F01200050E126EC00E0801806F51
:1027E0009DC581F8000E826F000E836F000E846F0E
:1027F0000CC506F50DC507F50EC508F5FEEC9FF0F6
:10280000116E000E106E59EF94F010500C24D96E1A
:10281000000E0D20DA6EC00EDE18D8A412EF94F070
:1028200014EF94F028EF94F0800E1224D96EDA6A37
:10283000080EDA22DB0EDF6E810E1224D96EDA6A00
:10284000080EDA22DC0EDF6E020E122658EF94F02C
:1028500010500C24D96E000E0D20DA6EDB0EDE183F
:10286000D8A435EF94F037EF94F049EF94F0800E50
:102870001224D96EDA6A080EDA22DB0EDF6E810EC0
:102880001224D96EDA6A080EDA22DD0EDF6E24EF2A
:1028900094F010500C24D96E000E0D20DA6E800ECC
:1028A0001224E16EE26A080EE222DFC4E7F4122A83
:1028B000102A0E50105CD8A060EF94F062EF94F0F4
:1028C00005EF94F0DB0E1118D8B469EF94F06BEFBC
:1028D00094F07FEF94F0C00E1118D8B472EF94F01A
:1028E00074EF94F07FEF94F0800E1224D96EDA6AC0
:1028F000080EDA2211C5DFF4122AB7EF94F0C00EE9
:102900001118D8A486EF94F088EF94F09CEF94F01F
:10291000800E1224D96EDA6A080EDA22DB0EDF6E20
:10292000810E1224D96EDA6A080EDA22DC0EDF6E0E
:10293000020E1226B7EF94F0DB0E1118D8A4A3EF05
:1029400094F0A5EF94F0B7EF94F0800E1224D96EB6
:10295000DA6A080EDA22DB0EDF6E810E1224D96EDF
:10296000DA6A080EDA22DD0EDF6E98EF94F0800E40
:102970001224D96EDA6A080EDA22C00EDF6E122A2D
:10298000800E086E080E096E12C50AF518ECA3F049
:1029900012000E6E0E50D8B4D0EF94F0D2EF94F037
:1029A000F4EF94F009BED9EF94F0D7EF94F0F4EF80
:1029B00094F006C50AF507C50BF508C50CF509C561
:1029C0000DF50A1E0B1E0C1E0D1E0A2A000E0B22F0
:1029D0000C220D220AC510F50BC511F50CC512F518
:1029E0000DC513F5FCEF94F006C510F507C511F5FC
:1029F00008C512F509C513F506500710081009108F
:102A0000D8A405EF95F007EF95F011EF95F0000EC3
:102A1000066E000E076E000E086E000E096EA2EF25
:102A200095F0960E0F6E1BEF95F00F2AD89013328B
:102A3000123211321032000E10140A6E000E1114F0
:102A40000B6E000E12140C6EFE0E13140D6E0A5057
:102A50000B100C100D10D8A430EF95F032EF95F05C
:102A600015EF95F040EF95F00F2A010E1026000E9D
:102A7000112212221322D890133212321132103244
:102A8000000E10140A6E000E11140B6E000E1214BC
:102A90000C6EFF0E13140D6E0A500B100C100D105F
:102AA000D8A455EF95F057EF95F034EF95F05FEF20
:102AB00095F00F06D890103611361236133612BE26
:102AC00064EF95F066EF95F06EEF95F0020E0F60F3
:102AD0006CEF95F06EEF95F059EF95F00FB073EF46
:102AE00095F075EF95F076EF95F0129ED8900F3235
:102AF0000FC50AF50B6A0C6A0D6A0AC50DF50C6A5A
:102B00000B6A0A6A0A5010120B5011120C50121262
:102B10000D5013120E50D8B490EF95F092EF95F03F
:102B20009AEF95F009BE99EF95F097EF95F09AEF2F
:102B300095F0138E10C506F511C507F512C508F5F9
:102B400013C509F5120021EEC2F311EE49F1090E89
:102B5000DBC4E3F4E806FCE2840E116EFB0E126E99
:102B6000D0ECA0F000EC80F03DC553F53EC554F527
:102B70003FC555F540C556F5E70E116EFF0E126EB6
:102B8000D0ECA0F0490E136E050E146E53C515F56A
:102B900054C516F555C517F556C518F56AEC96F0E7
:102BA000490E116E050E126ED0ECA0F056BEE3EF8A
:102BB00095F056505510541008E15304D8A0E3EF97
:102BC00095F0E5EF95F019EF96F0B30E116EFA0E51
:102BD000126ED0ECA0F0000E116E0C0E126ED0EC46
:102BE000A0F0490E136E050E146E53C515F554C5AD
:102BF00016F555C517F556C518F56AEC96F0E70EAB
:102C0000116EFF0E126ED0ECA0F0490E116E050E83
:102C1000126ED0ECA0F0F10E116EFF0E126ED0EC21
:102C2000A0F00F0E116EFF0E126ED0ECA0F069EF47
:102C300096F053280AE1542808E1552806E1562861
:102C4000D8A425EF96F027EF96F02FEF96F0470ED9
:102C5000116EFB0E126ED0ECA0F063EF96F0FE0E3C
:102C600053180AE1542808E1552806E15628D8A44B
:102C70003CEF96F03EEF96F046EF96F0E60E116EC2
:102C8000FD0E126ED0ECA0F063EF96F0FD0E53181F
:102C90000AE1542808E1552806E15628D8A453EF44
:102CA00096F055EF96F05DEF96F05F0E116EFE0E0A
:102CB000126ED0ECA0F063EF96F0A70E116EFD0E31
:102CC000126ED0ECA0F0590E116EFC0E126ED0EC0C
:102CD000A0F01200000E286ECA0E296E9A0E2A6EFF
:102CE0003B0E2B6E000E246E000E256E000E266E1F
:102CF000000E276E000E1C6E000E1D6E000E1E6E66
:102D0000000E1F6E000E206E000E216E000E226E51
:102D1000000E236E24501324D96E25501420DA6E31
:102D200015C506F516C507F517C508F518C509F543
:102D300028C50AF529C50BF52AC50CF52BC50DF5D7
:102D4000A4EC9DF00650300FDF6E010E2426000E1D
:102D500025222622272215C506F516C507F517C513
:102D600008F518C509F528C50AF529C50BF52AC5C2
:102D70000CF52BC50DF5D0EC9EF006C515F507C575
:102D800016F508C517F509C518F528C506F529C5AE
:102D900007F52AC508F52BC509F50A0E0A6E000EBF
:102DA0000B6E000E0C6E000E0D6EA4EC9DF006C5B1
:102DB00028F507C529F508C52AF509C52BF52450BE
:102DC0001324196E255014201A6EFF0E1924D96E83
:102DD000FF0E1A20DA6E300EDE18D8A4F2EF96F04D
:102DE000F4EF96F009EF97F01C501D101E101F1005
:102DF000D8A4FDEF96F0FFEF96F009EF97F0000EE4
:102E0000246E000E256E000E266E000E276E0FEF4C
:102E100097F0010E1C26000E1D221E221F22010EFD
:102E20002026000E212222222322235022102110AC
:102E300009E10A0E205CD8A020EF97F022EF97F06E
:102E40008AEF96F01200FAC404F5FBC405F5A8A0B9
:102E50002CEF97F02EEF97F039EF97F0B8A033EF03
:102E600097F035EF97F039EF97F08FECA6F0CFEFB2
:102E700097F0A1A23EEF97F040EF97F04BEF97F05D
:102E8000B1A245EF97F047EF97F04BEF97F042EC88
:102E90009EF0CFEF97F0A1A450EF97F052EF97F08C
:102EA0005DEF97F0B1A457EF97F059EF97F05DEF12
:102EB00097F0B4ECA6F0CFEF97F0A1A062EF97F0F7
:102EC00064EF97F06FEF97F0B1A069EF97F06BEFB9
:102ED00097F06FEF97F0F6EC9DF0CFEF97F0A7A289
:102EE00074EF97F076EF97F08DEF97F0B7A27BEF46
:102EF00097F07DEF97F08DEF97F002D88BEF97F07A
:102F00000500FA6E05018A51FD6E8B51FE6E8C51E3
:102F1000FF6EFA501200CFEF97F0A7A092EF97F054
:102F200094EF97F0ABEF97F0B7A099EF97F09BEF86
:102F300097F0ABEF97F002D8A9EF97F00500FA6E83
:102F400005018751FD6E8851FE6E8951FF6EFA5062
:102F50001200CFEF97F0A1AEB0EF97F0B2EF97F07D
:102F6000BDEF97F0B1AEB7EF97F0B9EF97F0BDEFC7
:102F700097F00FECA4F0CFEF97F0ADA0C2EF97F071
:102F8000C4EF97F0CFEF97F0BDA0C9EF97F0CBEF6C
:102F900097F0CFEF97F0ACECA6F0CFEF97F005C528
:102FA000FBF404C5FAF411005C50020D000EF3248A
:102FB000D96E0A0EF420DA6EDE6ADD6A0201D8A745
:102FC000E4EF97F0E6EF97F008EF98F05C50020D11
:102FD000000EF324D96E0A0EF420DA6E0A01DF82A5
:102FE00005017B517C117D11D8B4F9EF97F0FBEF0F
:102FF00097F008EF98F002D808EF98F00500FA6E05
:103000007B51FD6E7C51FE6E7D51FF6EFA501200B9
:103010000201D8A30EEF98F010EF98F032EF98F07D
:103020005C50020D000EF324D96E0A0EF420DA6E05
:103030000A01DF840501785179117A11D8B423EFA0
:1030400098F025EF98F032EF98F002D832EF98F030
:103050000500FA6E7851FD6E7951FE6E7A51FF6E61
:10306000FA501200C7C202F55C287F0B036E5B505A
:103070000318D8A43EEF98F040EF98F042EF98F094
:103080004DEF98F0800E5C24D96EDA6A0B0EDA22CE
:1030900002C5DFF403C55CF55F2A050172517311A7
:1030A0007411D8B456EF98F058EF98F065EF98F097
:1030B00002D865EF98F00500FA6E7251FD6E7351FB
:1030C000FE6E7451FF6EFA5012001200000EBE6EBA
:1030D000000EBF6E000EC06EC80EC16E000EC26E36
:1030E000800EC36EF90EC66EEF0EC76EEB0EC86E85
:1030F000070EC96E070ECA6E730ECB6EF50E040175
:10310000006FC10E086FC60E106F070E186F070E06
:10311000206F4D0E286F000E016F000E096F000E1C
:10312000116F000E196F000E216F000E296F000E37
:10313000026F000E0A6F000E126F000E1A6F000E63
:10314000226F000E2A6F03690B6913691B69070E52
:10315000236F2B6904690C6914691C690F0E246FB5
:103160002C69000E0201896F000E886F000E876FB8
:10317000000E866F100E426F130E6B6F2D0E406F98
:103180000D0E746F030E766F320E156F180E2C6FC6
:10319000190E2B6F1E0E136F230E0D6F260E026F6E
:1031A000270E036F150E6A6F310E166F000E0401A5
:1031B000056F000E066F000E076F000E0D6F000EFC
:1031C0000E6F000E0F6F000E156F000E166F000EC3
:1031D000176F000E256F000E266F000E276F12006E
:1031E000083409340F6E0F50D8A4F9EF98F0FBEFB4
:1031F00098F005EF99F0000E066E000E076E000EB7
:10320000086E000E096E72EF99F006C50AF507C543
:103210000BF508C50CF509C50DF5200E15EF99F055
:10322000D8900D320C320B320A32E82E10EF99F0A2
:103230000A500E6E088EFF0E0616FF0E0716FF0EC2
:103240000816000E0916960E0F5E0FBE2CEF99F0B1
:103250002AEF99F042EF99F00F50800A970FD8B0FB
:1032600034EF99F036EF99F038EF99F0FBEF98F0E2
:10327000D89009320832073206320F3E38EF99F003
:103280005AEF99F01F0E0F6448EF99F04AEF99F04A
:1032900052EF99F0FBEF98F0D890063607360836D3
:1032A00009360F060F50D8A458EF99F05AEF99F04D
:1032B0004CEF99F00E50D8B460EF99F062EF99F0AE
:1032C0006AEF99F0091E081E071E066C000E072201
:1032D0000822092206C506F507C507F508C508F541
:1032E00009C509F5120029ECA4F0620E066E450E20
:1032F000076E010E086E25ECA6F00E0E066E4C0E43
:10330000076E010E086E2CECA6F0C80E066E440E79
:10331000076E010E086E1EECA6F0FA0E066E490E40
:10332000076E010E086E33ECA5F0260E066E4D0EEC
:10333000076E010E086E5DECA6F0000E066E090E1B
:10334000076E000E096E000E086E000E0B6E800EEA
:103350000A6E57ECA3F0D68ED68C000EB8EC9AF01D
:10336000680E576EE40EE82EFED7572EFCD700D01D
:1033700097ECA6F069ECA0F005019D6FE7ECA5F0D5
:103380000009D8A4C6EF99F0C8EF99F0BEEF99F004
:10339000DAECA5F0E806D8B4D0EF99F0D2EF99F0C6
:1033A000D4EF99F0E0EF99F008EC8FF04EEC9AF042
:1033B00052EC9DF013EC8DF0D1EC90F0D6EF99F03B
:1033C0000DEF00F0340EF66E490EF76E010EF86E3A
:1033D00001EEC2F310EE28F00900F5C4EEF4E5505A
:1033E000E150FAE14C0EF66E4D0EF76E010EF86EDE
:1033F00001EEFAF210EE04F00900F5C4EEF4E55027
:10340000E150FAE103EE00F010EE00F1EE6AE55053
:10341000E150FCE1E250FAE102EE00F310EE00F1BF
:10342000EE6AE550E150FCE1E250FAE102EE00F212
:1034300010EE00F1EE6AE550E150FCE1E250FAE1F5
:1034400002EE00F1C80EEE6AE806FDE102EE00F0C1
:10345000C00EEE6AE806FDE101EE00F3C20EEE6A70
:10346000E806FDE101EEE5F2150EEE6AE806FDE183
:1034700001EE60F1500EEE6AE806FDE101EE58F152
:10348000080EEE6AE806FDE10401080E5D6F000E0D
:103490005E6F000E5F6F000173EF99F00501A1519F
:1034A000D8B455EF9AF057EF9AF078EF9AF0C1BA86
:1034B0005CEF9AF05FEF9AF0010E60EF9AF0000E69
:1034C000FF0A086E083A0846C1500818DF0B0818B2
:1034D000C16E000EA16FD1AA70EF9AF072EF9AF050
:1034E00076EF9AF0010E9E6F78EF9AF0000E9E6FC5
:1034F000D1BA7DEF9AF080EF9AF0010E81EF9AF049
:10350000000E9F6F9F51D8B488EF9AF08AEF9AF01F
:103510008DEF9AF0C19896EF9AF09F51D8A493EF4F
:103520009AF095EF9AF096EF9AF0C188D3B29BEF9C
:103530009AF09DEF9AF0B5EF9AF09F51D8B4A3EFAF
:103540009AF0A5EF9AF0A9EF9AF0A7ECA3F0B7EFE5
:103550009AF09F51D8A4AFEF9AF0B1EF9AF0B7EF7D
:103560009AF073ECA3F0B7EF9AF08DECA3F0120091
:10357000066E000184BFBFEF9AF0C1EF9AF021EF11
:103580009BF0810E0501686F0650050DA90EF3240E
:10359000F66EFA0EF420F76EF86A000EF8220800B4
:1035A000F5C484F00650050D010EF326000EF4223A
:1035B000A90EF324F66EFA0EF420F76EF86A000EE8
:1035C000F8220800F5C485F00650050D020EF3261A
:1035D000000EF422A90EF324F66EFA0EF420F76E14
:1035E000F86A000EF8220800F550FC0B0001866F07
:1035F0000650050D030EF326000EF422A90EF32447
:10360000F66EFA0EF420F76EF86A000EF822080043
:10361000F5C489F00650050D040EF326000EF422C1
:10362000A90EF324F66EFA0EF420F76EF86A000E77
:10363000F8220800F5C48CF0C89AA184848F21EF89
:103640009BF012000A500B10D8B429EF9BF02BEF1F
:103650009BF034EF9BF00A500B10D8A432EF9BF094
:1036600034EF9BF039EF9BF00850CBECA5F086EFE0
:103670009BF020EE0AF00A50D9260B50DA22DE50D9
:10368000DE10D8B446EF9BF048EF9BF063EF9BF061
:1036900020EE0AF00A50D9260B50DA2210EE03F081
:1036A0000A50E1260B50E222DE50E65CE650800A2A
:1036B000106EDE50800A1058D8B061EF9BF063EFB7
:1036C0009BF086EF9BF020EE03F00A50D9260B50BA
:1036D000DA22DEC40CF5DDC40DF50AC5D9F40BC53C
:1036E000DAF4DEC40EF5DDC40FF50C500E24D96EED
:1036F0000D500F20DA6E08C5DFF420EE03F00A50FB
:10370000D9260B50DA22DE2A000EDD221200000E2E
:103710000B6E09BE90EF9BF08EEF9BF096EF9BF047
:10372000086C091ED8B0092A010E0B6E07BE9DEF6A
:103730009BF09BEF9BF0A3EF9BF0066C071ED8B0AD
:10374000072A010E0B1A000E0D6E000E0C6E0850AB
:103750000910D8B4AEEF9BF0B0EF9BF0D8EF9BF020
:10376000010E0A6EB8EF9BF0D890083609360A2A87
:1037700009AEBDEF9BF0BFEF9BF0B4EF9BF0D8908C
:103780000C360D360850065C09500758D8A0CBEF10
:103790009BF0CDEF9BF0D2EF9BF00850065E0950F6
:1037A000075A0C80D890093208320A2EBFEF9BF0DE
:1037B0000B50D8B4DEEF9BF0E0EF9BF0E4EF9BF012
:1037C0000C6C0D1ED8B00D2A0CC506F50DC507F5FD
:1037D0001200000E1C6E000E1D6E000E1E6E000EFE
:1037E0001F6E000E206EFF0E076ECE0E066E85EC6D
:1037F000A4F00C0E086E050E096EDBECA3F0216E32
:10380000A3ECA6F0FDECA5F00009D8B40AEF9CF0FB
:103810000CEF9CF002EF9CF0A0ECA6F0010E1D2630
:10382000000E1E221F2220222150D8A41AEF9CF045
:103830001CEF9CF02BEF9CF020500DE1200E1D5C46
:10384000A10E1E58070E1F58D8A029EF9CF02BEF91
:103850009CF0F9EF9BF020500DE1200E1D5CA10EB5
:103860001E58070E1F58D8A038EF9CF03AEF9CF076
:103870003DEF9CF0FF0E48EF9CF02150D8B443EF91
:103880009CF045EF9CF047EF9CF00CC51CF51C50DC
:103890001200000E116E370E126E010E0F6E000E2A
:1038A0000E6E000ED6BE010E106E370E0A180910ED
:1038B000D8B45DEF9CF05FEF9CF07CEF9CF06FEF75
:1038C0009CF009C5D9F40AC5DAF411C5E1F412C5B2
:1038D000E2F4DFC4E7F4094A0A2A114A122A0E0662
:1038E000D8A00F060E2806E10F28D8A47AEF9CF086
:1038F0007CEF9CF061EF9CF008C545F006C50BF528
:1039000007C50CF508C50DF50CC50BF50DC50CF577
:103910000D6A0B500001446F06C543F04151F80B8E
:103920000509416FD69E000159C542F05850426FBB
:10393000408110B002D0D69E01D0D68EF80E000184
:1039400041174151120014C506F515C507F516C5F6
:1039500008F517C509F5B80E0A6E0B0E0B6E000EB2
:103960000C6E000E0D6E34ECA0F006C51CF507C5FC
:103970001DF508C51EF509C51FF5DAEF9CF012C547
:103980000CF513C50DF5F6ECA2F00C040D100E109D
:103990000F10D8A4CEEF9CF0D0EF9CF0DAEF9CF0A3
:1039A000000E126E000E136E000E146E000E156ED9
:1039B000FAEF9CF01CC518F51DC519F51EC51AF5C2
:1039C0001FC51BF51C06000E1D5A1E5A1F5A1BBE92
:1039D000F6EF9CF01B501A10191006E11804D8B02D
:1039E000F4EF9CF0F6EF9CF0BFEF9CF012681368C8
:1039F000146815681200A790A80E0501876F2F0E96
:103A0000886F010E896FA792740E8A6F460E8B6FB6
:103A1000010E8C6F000E0201C76F000EC96F000E01
:103A2000CB6F000ECD6F000ECF6FB00ED16F800E3A
:103A3000D26F020ED36F400ED46F030ED56F2E0ED1
:103A4000D66F000ED76F800ED86F000ED96F620E42
:103A5000066E4D0E076E010E086E66ECA5F05E0E4A
:103A6000066E4D0E076E010E086E55ECA5F0000EA9
:103A7000066E000E076E000E086E44ECA5F0000EF8
:103A80000501966F000E956F000E5E6E000EA56F1D
:103A9000400E5D6E000E5C6E000E5B6E000E5F6E83
:103AA000A7801200010E01ECA1F00DC568F70EC54C
:103AB00069F70FC56AF70D0E31ECA1F00DC56EF771
:103AC0000EC56FF70FC570F70F0E31ECA1F00DC5E5
:103AD00074F70EC575F70FC576F7100E31ECA1F02F
:103AE0000DC577F70EC578F70FC579F7130E31ECD2
:103AF000A1F00DC580F70EC581F70FC582F7170E2F
:103B000031ECA1F00DC58CF70EC58DF70FC58EF702
:103B1000140E31ECA1F00DC583F70EC584F70FC567
:103B200085F7150E31ECA1F00DC586F70EC587F7A8
:103B30000FC588F7180E31ECA1F00DC58FF70EC533
:103B400090F70FC591F71200000E0E6E000E0F6E6B
:103B5000000E106E000E116E0A500B100C100D109E
:103B6000D8B4B5EF9DF0B7EF9DF0EDEF9DF0010EED
:103B7000126EC1EF9DF0D8900A360B360C360D361A
:103B8000122A0DAEC6EF9DF0C8EF9DF0BBEF9DF081
:103B9000D8900E360F36103611360A50065C0B5090
:103BA00007580C5008580D500958D8A0DAEF9DF06E
:103BB000DCEF9DF0E5EF9DF00A50065E0B50075AD2
:103BC0000C50085A0D50095A0E80D8900D320C3204
:103BD0000B320A32122EC8EF9DF00EC506F50FC546
:103BE00007F510C508F511C509F512000501665164
:103BF0006711D8B4FEEF9DF000EF9EF010EF9EF03D
:103C000062C5D9F463C5DAF480C0DFF4624B632B7C
:103C1000FF0E6625666FFF0E6721676F12EF9EF03D
:103C200000018051050166516711D8A41AEF9EF07A
:103C30001CEF9EF041EF9EF0A190C39E6451651170
:103C4000D8A425EF9EF027EF9EF029EF9EF0810E7D
:103C5000686F0601D951DA11DB11D8B432EF9EF04A
:103C600034EF9EF041EF9EF002D841EF9EF0050048
:103C7000FA6ED951FD6EDA51FE6EDB51FF6EFA50CD
:103C800012001200050164516511D8B44AEF9EF08C
:103C90004CEF9EF05DEF9EF0C19660C5D9F461C512
:103CA000DAF4DF500001816F0501604B612BFF0EDC
:103CB0006425646FFF0E6521656F64516511D8A49A
:103CC00064EF9EF066EF9EF08AEF9EF0A19266513F
:103CD0006711D8A46EEF9EF070EF9EF072EF9EF029
:103CE000810E686F0601D651D711D811D8B47BEF79
:103CF0009EF07DEF9EF08AEF9EF002D88AEF9EF054
:103D00000500FA6ED651FD6ED751FE6ED851FF6E8A
:103D1000FA5012001200000E0201B46F000EB56FCF
:103D2000000EB66F000EB76F000EB86F000EB96FC1
:103D3000000EBA6F000EBB6F000EBC6F000EBD6FA1
:103D4000B00EBE6F800EBF6F080EC06F8A0EC16FBF
:103D5000000EC26F2E0EC36F000EC46F800EC56FB3
:103D6000000EC66F600E066E4D0E076E010E086ED9
:103D700099ECA5F05C0E066E4D0E076E010E086EF6
:103D800088ECA5F0000E066E000E076E000E086EA1
:103D900077ECA5F0000E0501946F000E936F1200F2
:103DA0000A500B100C100D10D8B4D9EF9EF0DBEFB9
:103DB0009EF00BEF9FF0010E0E6EE5EF9EF0D89097
:103DC0000A360B360C360D360E2A0DAEEAEF9EF093
:103DD000ECEF9EF0DFEF9EF00A50065C0B500758A8
:103DE0000C5008580D500958D8A0F9EF9EF0FBEF81
:103DF0009EF003EF9FF00A50065E0B50075A0C50DE
:103E0000085A0D50095AD8900D320C320B320A3232
:103E10000E2EECEF9EF006C506F507C507F508C5A2
:103E200008F509C509F51200000E8D6E030E8E6EA1
:103E3000000E8F6EE70E906E030E916E3F0E926E27
:103E4000000E936E000E946E000E956E000E976E2F
:103E5000000E986E000E996EF40E9A6E010E9B6E17
:103E6000B79CB79E94909492A79EA79C000E066E56
:103E7000000E076E000E086E3AECA6F0000E066EFD
:103E8000000E076E000E086E33ECA6F0000E066EF4
:103E9000000E076E000E086E41ECA6F0800E966EC6
:103EA0001200000E606E030E616E000E626EE70E71
:103EB000636E030E646E3F0E656E000E666E000E3E
:103EC000676E000E686E000E6A6E000E6B6E000E5E
:103ED0006C6EF40E6D6E010E6E6EB29CB29E6790AB
:103EE0006792A29EA29C000E066E000E076E000E48
:103EF000086E4FECA6F0000E066E000E076E000E68
:103F0000086E48ECA6F0000E066E000E076E000E5E
:103F1000086E56ECA6F0800E696E12000BC738F7DB
:103F20000AC739F709C73AF708C73BF713C740F77D
:103F300012C741F711C742F710C743F717C744F735
:103F400016C745F715C746F714C747F723C750F7F5
:103F500022C751F721C752F720C753F733C760F77D
:103F600032C761F731C762F730C763F727C754F725
:103F700026C755F725C756F724C757F72BC758F755
:103F80002AC759F729C75AF728C75BF712000C6EE2
:103F9000010E0501AB6F0C44E846FC0BAC6FAB0E99
:103FA000066E050E076E000E096E020E086E91EC8D
:103FB000A1F010ECA5F00009D8B4E1EF9FF0E3EF19
:103FC0009FF0D9EF9FF0000E0501A36FA60E066EBD
:103FD000050E076E000E096E030E086E61ECA1F06F
:103FE00010ECA5F00009D8B4F8EF9FF0FAEF9FF0BD
:103FF000F0EF9FF0000E0501A26F1200000E096E97
:10400000000E0B6E000E096E29EFA0F006C5D9F464
:1040100007C5DAF4DF500B1A064A072A000E0A6EAB
:104020000BAE15EFA0F017EFA0F01DEFA0F0D890A9
:104030000B36070E0B1A1FEFA0F0D8900B360A2A8A
:10404000070E0A6426EFA0F028EFA0F010EFA0F012
:10405000092A0850095CD8A030EFA0F032EFA0F098
:1040600006EFA0F00B501200000E0E6E000E0F6E49
:10407000000E106E000E116E06A041EFA0F043EF8F
:10408000A0F04BEFA0F00A500E260B500F220C5060
:1040900010220D501122D8900A360B360C360D36F0
:1040A000D89009320832073206320650071008103D
:1040B0000910D8A45EEFA0F060EFA0F03CEFA0F0F4
:1040C0000EC506F50FC507F510C508F511C509F5AC
:1040D0001200CFB26EEFA0F072EFA0F0066A062ACF
:1040E00073EFA0F0066ACFB478EFA0F07CEFA0F0F9
:1040F000020E076E7DEFA0F0076ACFB682EFA0F048
:1041000086EFA0F0040E086E87EFA0F0086AD3B81F
:104110008CEFA0F090EFA0F0096A092A91EFA0F0CF
:10412000096AD8900936D8900936D8900934081011
:1041300007100610FF0A0F0B1200000E086E000E8B
:10414000096E000E0A6E000E0B6EFF0E076ECE0E8D
:10415000066E85ECA4F0C1EFA0F0A3ECA6F0FDEC98
:10416000A5F00009D8B4B7EFA0F0B9EFA0F0AFEF19
:10417000A0F0A0ECA6F0010E0826000E09220A22EB
:104180000B220B500A100BE1100E085C270E095889
:10419000D8A0CDEFA0F0CFEFA0F0ADEFA0F01200CF
:1041A000E7EFA0F011C5F6F412C5F7F4000EF86EB3
:1041B000360EF76403D00800F55005D0F6C4E9F4D4
:1041C000F7C4EAF4EF50D6ECA4F0114A122A11C554
:1041D000F6F412C5F7F4000EF86E360EF76403D04D
:1041E0000800F55005D0F6C4E9F4F7C4EAF4EF503E
:1041F0000009D8A4FEEFA0F000EFA1F0D2EFA0F0EC
:1042000012001C6E1C50C7EC9FF0E40E00D000D0D2
:10421000E82EFCD700D000D00501A851106E116A1D
:10422000126AA751136E146A156A14C515F513C5E1
:1042300014F5136AA651186E176A166A13501610F1
:10424000196E145017101A6E155018101B6E10505E
:1042500019100D6E11501A100E6E12501B100F6EA9
:1042600012001C6E1C50C7EC9FF0E40E00D000D072
:10427000E82EFCD700D000D00501A851106E116ABD
:10428000126AA751136E146A156A14C515F513C581
:1042900014F5136AA651186E176A166A1350161091
:1042A000196E145017101A6E155018101B6E1050FE
:1042B00019100D6E11501A100E6E12501B100F6E49
:1042C000120006C50AF507C50BF5810E0501681930
:1042D000D8A46DEFA1F06FEFA1F090EFA1F0000175
:1042E00086510109FD0B866F000E0501606F000EFF
:1042F000616F0AC562F50BC563F5000E656F000EB0
:10430000646F08C566F509C567F5420E686F000160
:104310008785000E816F0950836F08C582F0A180E8
:10432000120006C50AF507C50BF5810E05016819CF
:10433000D8A49DEFA1F09FEFA1F0BEEFA1F0000186
:104340008651FE0B0209866F0AC560F50BC561F543
:10435000000E0501626F000E636F08C564F509C5A4
:1043600065F5000E676F000E666F420E686F000104
:1043700087850950836F08C582F0A1821200D68A12
:1043800003016C816583658565816B836B81658FB6
:104390007181AF90D680000E066E000E076E000E83
:1043A000086E6BECA6F0B490D692000E066E000E6E
:1043B000076E000E086E64ECA6F0B890D6946A0EF4
:1043C000066E4D0E076E010E086E5DECA6F0A8801D
:1043D000120023C527F524C528F5FDEFA1F021C55E
:1043E00011F522C512F5270E136E050E146E25C5A4
:1043F00015F526C516F508EC93F027C5F6F428C583
:10440000F7F4000EF86E0800F5500009D8A40BEF81
:10441000A2F00DEFA2F0EFEFA1F0000E226E000E61
:10442000216E120003011E91000E1F6F000E206FFF
:10443000000E216F000E1D6F000E1C6F1D51096EC6
:104440001C510501976F09C598F5640E066E4D0E57
:10445000076E010E086E10ECA6F0000E066E000E40
:10446000076E000E086E17ECA6F0B198B19A350EE3
:1044700003011E6F1200000ED6BE010E0C6E08C5A1
:1044800045F006C509F507C50AF508C50BF50AC5C7
:1044900009F50BC50AF50B6A09500001446F41513B
:1044A000F80B0609416FD69E000159C542F05850DD
:1044B000426F40810CB002D0D69E01D0D68EF80E4D
:1044C00000014117415112000501914B922BF40E4E
:1044D000915D010E9259D8A070EFA2F072EFA2F098
:1044E0008BEFA2F0C1BC77EFA2F07AEFA2F0010E41
:1044F0007BEFA2F0000EFF0A016E013A0146014671
:10450000C1500118BF0B0118C16E000E926F000E52
:10451000916F010EA06F1200076EA7B292EFA2F08A
:1045200094EFA2F098EFA2F007C5C9F2AFEFA2F0A6
:104530005D50D8B49EEFA2F0A0EFA2F0AFEFA2F0D2
:10454000000E5E24D96EDA6A080EDA2207C5DFF49F
:104550005E283F0B066E06C55EF5A7925D06A78234
:104560001200010E0501A36FF2ECA5F00009D8B40A
:10457000BCEFA2F0BEEFA2F0B4EFA2F005019C5197
:10458000D8B4C5EFA2F0C7EFA2F0CFEFA2F0D50EDE
:10459000E82EFED70000C186000E05019C6FD50EE7
:1045A000E82EFED700001200A194A192A190000E67
:1045B0000001846F000E856F000E866F000E896FFC
:1045C000000E8C6F000E066E000E076E000E086E59
:1045D0002CECA6F0000E066E000E076E000E086EA4
:1045E00025ECA6F0000E0501686F12000CC508F559
:1045F0000DC509F5DBECA3F0106E1050D8B403EF35
:10460000A3F005EFA3F00FEFA3F0010E0C6E000E68
:104610000D6E000E0E6E000E0F6E17EFA3F0000E63
:104620000C6E000E0D6E000E0E6E000E0F6E120060
:10463000000E0B6E30EFA3F0BBECA5F00009D8B470
:1046400024EFA3F026EFA3F01CEFA3F00B500824F7
:10465000D96E000E0920DA6EDF508CECA2F00B2A26
:104660000A500B5CD8A037EFA3F039EFA3F01CEF92
:10467000A3F01200400E5D6040EFA3F042EFA3F004
:1046800055EFA3F0000E0501A525D96EDA6A080ED4
:10469000DA22DF500201C96F0501A5293F0B016E27
:1046A00001C5A5F55D2A56EFA3F0A792120006C535
:1046B0000CF507C50DF565EFA3F00CC5D9F40DC5D4
:1046C000DAF408C5DFF40C4A0D2A0A06D8A00B0656
:1046D0000A2806E10B28D8A470EFA3F072EFA3F02C
:1046E0005DEFA3F01200FF0E076E000E066E72EC77
:1046F000A6F0010E076E000E066E77ECA6F0000E17
:10470000076E000E066E7CECA6F0A8ECA6F0AAECF4
:10471000A6F0030E05019B6F12007D0E076E000EC2
:10472000066E72ECA6F0000E076E000E066E7CECB4
:10473000A6F0000E076E000E066E77ECA6F0A8EC51
:10474000A6F0AAECA6F0000E05019B6F1200000E69
:10475000076E000E066E72ECA6F0000E076E000EDD
:10476000066E7CECA6F07D0E076E000E066E77ECF2
:10477000A6F0A8ECA6F0AAECA6F0010E05019B6F2E
:104780001200000E0001B46F070EB56F070EB66F72
:10479000070EB76F070EB86F070EB96F070EBA6F27
:1047A000070EBB6F070EBE6F070EBF6F000EF46ED5
:1047B000000EF36E1200000E0B6EEBEFA3F0F5ECA3
:1047C000A3F00A6E0B500824D96E000E0920DA6E91
:1047D0000AC5DFF40B2A5F50D8A4F1EFA3F0F3EF82
:1047E000A3F0DFEFA3F00B501200800E5B24D96E14
:1047F000DA6A0B0EDA22DF50076E5B287F0B066E3B
:1048000006C55BF5A7905F50D8B409EFA4F00BEF95
:10481000A4F00CEFA4F05F06A78007501200B19E31
:104820000601D351D411D511D8B419EFA4F01BEF60
:10483000A4F028EFA4F002D828EFA4F00500FA6E47
:10484000D351FD6ED451FE6ED551FF6EFA50120059
:104850001200AAECA5F066EC98F0C1ECA3F081EC94
:10486000A6F051EC9FF014EC9FF0D4ECA2F070ECA9
:10487000A4F012ECA2F08BEC9EF0FBEC9CF0BFECF1
:10488000A1F0120005017E517F118011D8B44BEFC9
:10489000A4F04DEFA4F05AEFA4F002D85AEFA4F020
:1048A0000500FA6E7E51FD6E7F51FE6E8051FF6EE7
:1048B000FA5012001200000E066E0201C3AB63EF45
:1048C000A4F065EFA4F06EEFA4F0BEAB6AEFA4F025
:1048D0006CEFA4F06EEFA4F0010E066E065012000D
:1048E0007C0E0301196F000E186F690E1B6F660EA8
:1048F000066E4D0E076E010E086E1EECA6F0B19E00
:10490000A18E800E03011A6F120003011EA58BEF0A
:10491000A4F08DEFA4F095EFA4F01E9107501D6F49
:1049200006C51CF31E8199EFA4F007501D6F06C544
:104930001CF3120020202020202020202020C00056
:104940008089C0C0000000C04E6F0A000000000057
:1049500000000000000000000000000021EECCF389
:1049600011EE0CF1040EDBC4E3F4E806FCE29DC595
:104970000DF50C0E086E050E096E050E0A6E18EC8C
:10498000A3F0120021EED1F311EE0CF1040EDBC402
:10499000E3F4E806FCE29DC50DF50C0E086E050E6D
:1049A000096E050E0A6E18ECA3F01200106E000ED0
:1049B0000C6E000E0D6E000E0E6E000E0F6E10C50A
:1049C0000CF50C0E086E050E096E010E0A6E18EC41
:1049D000A3F012002B0E2D6E050E2E6E000E216E12
:1049E000000E226E29C523F52AC524F52D0E256E4D
:1049F000050E266EE9ECA1F01200C1BE02EFA5F093
:104A000005EFA5F0010E06EFA5F0000EFF0A016EFE
:104A100001320132C15001187F0B0118C16E120022
:104A2000810E05016819D8A418EFA5F01AEFA5F0BA
:104A30001EEFA5F0010E066E20EFA5F0000E066E2B
:104A400006501200000E066E090E076E000E096E6B
:104A5000000E086E000E0B6E800E0A6E57ECA3F06F
:104A6000000E5A6E1200065007100810D8B43BEF23
:104A7000A5F03DEFA5F043EFA5F006C572F507C51B
:104A800073F508C574F51200065007100810D8B465
:104A90004CEFA5F04EEFA5F054EFA5F006C5F4F6E7
:104AA00007C5F5F608C5F6F61200065007100810FF
:104AB000D8B45DEFA5F05FEFA5F065EFA5F006C5F2
:104AC00078F507C579F508C57AF512000650071084
:104AD0000810D8B46EEFA5F070EFA5F076EFA5F052
:104AE00006C57BF507C57CF508C57DF512000650A7
:104AF00007100810D8B47FEFA5F081EFA5F087EF7D
:104B0000A5F006C5F1F607C5F2F608C5F3F61200E2
:104B1000065007100810D8B490EFA5F092EFA5F05A
:104B200098EFA5F006C56CF507C56DF508C56EF5DF
:104B30001200065007100810D8B4A1EFA5F0A3EF9B
:104B4000A5F0A9EFA5F006C56FF507C570F508C576
:104B500071F51200600E0001AD6F000EAF6F000E18
:104B6000B36F080EB16F000EB06F000EAC6F000E89
:104B70000401586F1200D7AEC0EFA5F0F2EFA5F018
:104B80005D50D8A4C6EFA5F0C9EFA5F0010ECAEF9D
:104B9000A5F0000E1200076E5BECA4F00009D8B47B
:104BA000D4EFA5F0D6EFA5F0CCEFA5F007508BEC35
:104BB000A6F01200000141AFE0EFA5F0E2EFA5F092
:104BC000E5EFA5F0010EE6EFA5F0000E12000001E2
:104BD00040B1EDEFA5F0F0EFA5F0010EF1EFA5F07B
:104BE000000E12005D50D8A4F8EFA5F0FBEFA5F081
:104BF000010EFCEFA5F0000E1200B1B802EFA6F016
:104C000005EFA6F0010E06EFA6F0000E1200010E51
:104C10000501A26F350EE82EFED70000C1861200F6
:104C200006C5EAF707C5EBF708C5ECF7120006C59D
:104C3000D0F607C5D1F608C5D2F6120006C5D3F6E0
:104C400007C5D4F608C5D5F6120006C5D6F607C5C1
:104C5000D7F608C5D8F6120006C5D9F607C5DAF6A4
:104C600008C5DBF6120006C5DFF607C5E0F608C585
:104C7000E1F6120006C5E2F607C5E3F608C5E4F65C
:104C8000120006C5DCF607C5DDF608C5DEF6120023
:104C900006C5F9F507C5FAF508C5FBF5120006C506
:104CA000FCF507C5FDF508C5FEF5120006C5F6F5CD
:104CB00007C5F7F508C5F8F5120006C57EF507C566
:104CC0007FF508C580F5120006C581F507C582F598
:104CD00008C583F5120006C584F507C585F508C526
:104CE00086F5120006C598F40750996E120006C5A5
:104CF0006DF407506E6E120006C56BF407506C6EB3
:104D000012009AECA6F0BD90AD801200116E115009
:104D1000D6ECA4F01200066E06C5B6F21200B890EA
:104D200042ECA4F01200010E0501A16F1200030174
:104D30001A8F12000001419F1200D69ED69C1200CD
:104D400003011E91120003011E81120000000001E8
:104D50009684120069841200BD90120012001200A5
:0C4D6000120012001200120012001200DB
:020000040030CA
:100000008FEFF7FF9FFFFFFFFFFFFFFFFFFFFFFFE8
:10001000FFFFFFFFFFFFFFFFFFFFFFFFFFFFFFFFF0
:03002000FFFFFFE0
:00000001FF
