:040000000DEF00F010
:0400080044EF97F03A
:06001800FF0009EF9AF061
:10F9AC00006C3D01000000000000AC4D01000000A7
:10F9BC0044490100000000000000000000000000AD
:10F9CC00000000000000000000000000000000002B
:10F9DC00000000000000000000000000009E4B0131
:10F9EC007C4B015A4B010000004C3A01000000789E
:10F9FC004801EA4501000000044C01000000000031
:10FA0C0000000000000000000000000000000000EA
:10FA1C00000000000000000000000000000000D208
:10FA2C004A01000000384B01164B01F44A0100005A
:10FA3C00007A4601000000C63501000000000000FD
:10FA4C00944301F44301000000000000000000009A
:10FA5C000000AE4A01E64C01D84C01F64401DC4DE5
:10FA6C0001D64D01984901AE4C010000006E4901D0
:10FA7C00C44D01000000000000CA4C01000000024F
:10FA8C0020003F0002400000000A0A0D2050726F57
:10FA9C006772616D6D696E6720436F6D706C657414
:10FAAC006564205375636365737366756C6C79213B
:10FABC000A0D2D2D2D2D2D2D2D2D2D2D2D2D2D2DAD
:10FACC002D2D2D2D2D2D2D2D2D2D2D2D2D2D2D2D5A
:10FADC002D2D0D0A204E616D653A2000496E766120
:10FAEC006C6964204E756D6265722021203D3D3E2F
:10FAFC0020546865204E756D6265722053686F7571
:10FB0C006C642062652045697468657220312C2014
:10FB1C002832292C206F7220330D0A0A000A0A0D94
:10FB2C0054686520696D6167652073697A65206921
:10FB3C007320686967686572207468616E207468E8
:10FB4C006520616C6C6F77656420737061636520F0
:10FB5C006D656D6F7279210A0D0057616974696E5C
:10FB6C006720666F72207468652066696C65207406
:10FB7C006F2062652073656E74202E2E2E202870E7
:10FB8C00726573732027612720746F2061626F7216
:10FB9C0074290A000D0A4D61676963204E756D6208
:10FBAC00657220446F6573204E6F74204D617463D1
:10FBBC00682E2E2E20466C61736820696D61676516
:10FBCC0020696E76616C69640D0A0A004D656E756C
:10FBDC002054696D656F75742E2E2E2E2041747411
:10FBEC00656D7074696E6720746F206C61756E63DF
:10FBFC0068206170706C69636174696F6E0D0A0ABC
:10FC0C00000D0A2020506C65617365206D616B6579
:10FC1C0020612073656C656374696F6E20776974FD
:10FC2C0068696E20353020736563730D0A0A000A0B
:10FC3C000D496620612076616C696420696D61678D
:10FC4C0065206578697374732C2069742077696CEE
:10FC5C006C206C61756E63680A0D00202055706411
:10FC6C0061746520546865204669726D77617265B0
:10FC7C00202D2D2D2D2D2D2D2D2D2D2D2D2D2D2DB5
:10FC8C002D20310D0A0A002020426F6F7420537909
:10FC9C007374656D202D2D2D2D2D2D2D2D2D2D2D90
:10FCAC002D2D2D2D2D2D2D2D2D2D2D2D2D20320DA0
:10FCBC000A0A0020205072696E7420417070205620
:10FCCC00657273696F6E202D2D2D2D2D2D2D2D2DE3
:10FCDC002D2D2D2D2D2D2D2D2D20330D0A0A0020EF
:10FCEC00205072696E7420426F6F746C6F61646522
:10FCFC00722056657273696F6E202D2D2D2D2D2D52
:10FD0C002D2D2D2D2D20340D0A0A003D3D3D3D3D60
:10FD1C003D3D3D3D3D3D3D3D3D3D3D3D3D3D3D3D07
:10FD2C003D3D3D3D3D3D3D3D3D3D3D3D3D3D3D3DF7
:10FD3C003D3D3D0D0A0A000D0A3D3D3D3D3D204433
:10FD4C0043445520426F6F74204D656E7520203DE5
:10FD5C003D3D3D3D3D3D0D0A0A000D0A3D3D3D3DFD
:10FD6C003D0953797374656D205374617274696EB7
:10FD7C0067203D3D3D3D3D3D3D0D0A0A000A0D46C7
:10FD8C0061696C656420746F207265636569766562
:10FD9C00207468652066696C65210A0D00436F6DDF
:10FDAC006D616E6420737472696E672073697A6515
:10FDBC00206F766572666C6F770D0A000A0D4C6FBA
:10FDCC006164696E6720426F6F746C6F61646572F9
:10FDDC002056657273696F6E2032000A0A0D5665E3
:10FDEC0072696669636174696F6E206661696C65BE
:10FDFC0064210A0D000D0A4D61676963204E756D13
:10FE0C00626572204D6174636865730D0A0A004562
:10FE1C0072726F722C20496E707574206167616903
:10FE2C006E3A200D0A004D6F64756C652054797024
:10FE3C00653A2052455345525645440A000D0A5224
:10FE4C006567697374657220416464726573733A93
:10FE5C00202578000D0A0A41626F72746564206275
:10FE6C007920757365722E0A0D004D6F64756C6583
:10FE7C0020547970653A204143444D3130410A0099
:10FE8C004D6F64756C6520547970653A2044434419
:10FE9C004D3130410A004D6F64756C65205479709A
:10FEAC00653A204443444D3630410A004D6F647529
:10FEBC006C6520547970653A204443434D3235418A
:10FECC000A004D6F64756C6520547970653A204159
:10FEDC0043444D3335410A004D6F64756C652054B5
:10FEEC007970653A204443444D3335410A000D0A7C
:10FEFC004E6F7420612076616C696420636F6D6D48
:10FF0C00616E64002D2D2D2D2D2D2D2D2D2D2D2D96
:10FF1C002D2D2D2D2D2D2D0A000D0A456E7465727B
:10FF2C0020466C617368204D6F6465005573657273
:10FF3C002043616E63656C6C6564200D0A00426F32
:10FF4C006F742076657273696F6E2069733A200046
:10FF5C004170702076657273696F6E2069733A20F8
:10FF6C00000D0A426C6F636B205265616420436D17
:10FF7C006400496E76616C6964205645525F494451
:10FF8C000A00496E76616C69642048575F49440ADF
:10FF9C000056657273696F6E3A2056300A005665CA
:10FFAC007273696F6E3A2056310A00566572736926
:10FFBC006F6E3A2056320A0056657273696F6E3A4C
:10FFCC002056330A000D0A577269746520436D641C
:10FFDC00000D0A5265616420436D64000A0D2053C4
:10FFEC00697A653A20002042797465730D0A00081D
:04FFFC0020080000D9
:020000040001F9
:10000000000E0601C86F000EC96F000ECA6F000E09
:10001000CB6F000EB16F000EF66F000EF76F010E82
:10002000F86F000EF96F000EA56F000EA66F000EA0
:10003000A76F000EA86F000EAD6F000EAE6F000E22
:10004000AF6F000EB06F000EB26F000EB36F000EF8
:10005000B46F000EB56F000EBC6F000EBD6F000ECA
:10006000BE6F000EBF6F000EA96F000EAA6F000ECC
:10007000AB6F000EAC6FA4EF83F0000E0601AD6F06
:10008000000EAE6F000EAF6F000EB06FEFEF82F09C
:10009000060ECDECA6F0000E3D6E000E3E6E000E7C
:1000A0003F6E000E406EF5EF83F0060ECDECA6F02D
:1000B000010E0601A96F000EAA6F000EAB6F000EB5
:1000C000AC6FD6EF83F0FF0EBC15416E000EBD1570
:1000D000426E000EBE15436E000EBF15446E01C683
:1000E00045F5466A476A486A415045180FE1425053
:1000F00046180CE14350471809E144504818D8B459
:1001000084EF80F086EF80F0A7EF80F0150ECDEC45
:10011000A6F0D60E066E070E076E000E096E000ED4
:10012000086E000E0B6E0A0E0A6E9EECA3F0D60E41
:10013000136E070E146EBCC615F5BDC616F5BEC609
:1001400017F5BFC618F58BEC96F0D6EF83F0BC51CF
:10015000BD11BE11BF11D8A4B0EF80F0B2EF80F096
:10016000C0EF81F00351D8B4B8EF80F0BAEF80F05F
:10017000AAEF81F0000ECC6F000ECD6F000ECE6F97
:10018000000ECF6F030EC26F060EC36FDCEF80F060
:10019000C2C6D9F4C3C6DAF4000ECC25E16E0C0E4B
:1001A000CD21E26EDFC4E7F4C24BC32B010ECC2796
:1001B000000ECD23CE23CF23C2C6D9F4C3C6DAF4B2
:1001C000DF50D8B4E6EF80F0E8EF80F0F6EF80F093
:1001D000CFBFF4EF80F0CF51CE1108E1CD05D8A00C
:1001E000F4EF80F0F6EF80F0C8EF80F0000ECC2541
:1001F000D96E0C0ECD21DA6EDF6A010ECC27000E0F
:10020000CD23CE23CF23000ECC6F000ECD6F000E7A
:10021000CE6F000ECF6FC24BC32B23EF81F0C2C64F
:10022000D9F4C3C6DAF4950ECC25E16E060ECD21C5
:10023000E26EDFC4E7F4C24BC32B010ECC27000EE5
:10024000CD23CE23CF23C2C6D9F4C3C6DAF4200E01
:10025000DE18D8B42EEF81F030EF81F040EF81F05E
:10026000CFBF3EEF81F0CF51CE11CD1109E1100E7D
:10027000CC5DD8A03EEF81F040EF81F00FEF81F030
:10028000950ECC25D96E060ECD21DA6EDF6A010EF1
:10029000CC27000ECD23CE23CF23950E126E060E53
:1002A000136EC80E146E060E156EF6EC83F0060182
:1002B000CB510CE1C805000EC959010ECA59D8A08E
:1002C00064EF81F066EF81F072EF81F0180ECDECF3
:1002D000A6F0180ECDECA6F03D683E683F68406879
:1002E000F5EF83F0000EC16F000EC06FC105D8A0FE
:1002F0007CEF81F07EEF81F080EF81F0A2EF81F062
:10030000C051426E416A41C543F542C544F5456A54
:10031000000E4324066E000E4420076E010E452099
:10032000086EA4ECA2F02EECA6F00009D8A49BEF76
:1003300081F09DEF81F093EF81F00601C04BC12B5E
:1003400076EF81F0060ECDECA6F0430ECDECA6F0D4
:10035000DEEF82F0060ECDECA6F0010E0601A96FCD
:10036000000EAA6F000EAB6F000EAC6F010EA56FF2
:10037000000EA66F000EA76F000EA86FD6EF83F0D9
:10038000000EE56F000EE66F000EE76F000EE86FDF
:10039000000EB86F000EB96F000EBA6F000EBB6F83
:1003A000ADEF82F0B851B911BA11BB11D8B4DBEF7F
:1003B00081F0DDEF81F002EF82F03F0EF615416E25
:1003C000000EF715426E000EF815436E000EF9157B
:1003D000446E4150421043104410D8A4F2EF81F013
:1003E000F4EF81F002EF82F0400E066E090E076E08
:1003F000000E086EC00EF625096EFF0EF7210A6E7C
:1004000074EC9CF0000E0601C825416E000EC92157
:10041000426E010ECA21436E000ECB21446E415044
:10042000F65D4250F7594350F8594450F959D8B045
:100430001CEF82F01EEF82F0DBEF82F0C451B85D5A
:10044000C551B959C651BA59BB51800A416EC751FD
:10045000800A4158D8A02FEF82F031EF82F033EFBD
:1004600082F0DBEF82F0030EE525416E000EE621FF
:10047000426E000E4124D96E060E4220DA6E3F0E07
:10048000F615436E000EF715446E400E4324E16EE0
:10049000090E4420E26EDFC4E7F4040EE525416E48
:1004A000000EE621426E000E4124D96E060E422057
:1004B000DA6E3F0EF615436E000EF715446E410ED0
:1004C0004324E16E090E4420E26EDFC4E7F4050E1A
:1004D000E525416E000EE621426E000E4124D96EE4
:1004E000060E4220DA6E3F0EF615436E000EF7152B
:1004F000446E420E4324E16E090E4420E26EDFC4D6
:10050000E7F4060EE525416E000EE621426E000E70
:100510004124D96E060E4220DA6E3F0EF615436E68
:10052000000EF715446E430E4324E16E090E44207D
:10053000E26EDFC4E7F4040EF627000EF723F8237B
:10054000F923040EE527000EE623E723E823040E33
:10055000B827000EB923BA23BB23B851C45DB951E3
:10056000C559BA51C659C751800A416EBB51800A5C
:100570004158D8A0BEEF82F0C0EF82F0DBEF82F0EE
:10058000000EC825416E000EC921426E010ECA211F
:10059000436E000ECB21446EF651415CF751425838
:1005A000F8514358F9514458D8B0D9EF82F0DBEFF5
:1005B00082F0D2EF81F0060ECDECA6F0010E06011E
:1005C000BC27000EBD23BE23BF23010EB26F000E59
:1005D000B36F000EB46F000EB56FD6EF83F0C4C6D4
:1005E00041F5C5C642F5C6C643F5C7C644F54450F5
:1005F000000AD8B41EEF83F0FF0AD8B425EF83F0C9
:1006000063EF80F04250000AD8B409EF83F063EF43
:1006100080F04150000AD8B455EF80F063EF80F0CD
:100620004250FF0AD8B417EF83F063EF80F04150D7
:10063000FF0AD8B448EF80F063EF80F04350000A1F
:10064000D8B402EF83F063EF80F04350FF0AD8B4D0
:1006500010EF83F063EF80F0180ECDECA6F0180ECB
:10066000CDECA6F0FD0E3D6EFF0E3E6EFF0E3F6E12
:10067000FF0E406EF5EF83F00601B251B311B411D5
:10068000B511D8A446EF83F048EF83F072EF83F002
:10069000430ECDECA6F0000E0601B76F000EB66F4C
:1006A000B7BF5CEF83F0B75109E1020EB65DD8A089
:1006B0005CEF83F05EEF83F060EF83F067EF83F031
:1006C00006ECA1F00601B64BB72B50EF83F0B12B2F
:1006D000180EB1656EEF83F070EF83F0D6EF83F004
:1006E0004BEF80F0B5BF7FEF83F0B551B411B3117C
:1006F00008E1B205D8A07FEF83F081EF83F087EFA8
:1007000083F0010EAD27000EAE23AF23B023B0BFA0
:1007100095EF83F0B051AF11AE1109E1110EAD5D4F
:10072000D8A095EF83F097EF83F09FEF83F0180E3A
:10073000CDECA6F0180ECDECA6F04BEF80F0430EFA
:10074000CDECA6F0D6EF83F0000E2C6E060E2D6ECB
:10075000C40E2E6E060E2F6E000E306E010E316E20
:10076000000E326E000E336E24EC92F02F50000A11
:10077000D8B4CFEF83F03CEF83F02D50000AD8B40B
:10078000C4EF83F03CEF83F02C50000AD8B43DEF67
:1007900080F0010AD8B42CEF83F03CEF83F02E50A8
:1007A000000AD8B4BDEF83F03CEF83F00601A951F5
:1007B000AA11AB11AC11D8B4E0EF83F0E2EF83F0F3
:1007C000A4EF83F0A551A611A711A811D8B4EBEF9F
:1007D00083F0EDEF83F02BEF80F0C8C63DF5C9C67E
:1007E0003EF5CAC63FF5CBC640F51200000E1E6EA0
:1007F000000E1F6E000E206E000E216E000E226E87
:10080000000E236E000E246E000E256E12C5D9F464
:1008100013C5DAF4300EDE18D8A411EF84F013EF0C
:1008200084F086EF85F020EE01F01250D9261350A7
:10083000DA22780EDE18D8B420EF84F022EF84F0AC
:1008400031EF84F020EE01F01250D9261350DA2255
:10085000580EDE18D8A42FEF84F031EF84F086EF25
:1008600085F020EE02F01250D9261350DA22DF5024
:10087000D8A43DEF84F03FEF84F049EF84F0000E00
:10088000126E000E136E000E146E000E156EB8EF91
:1008900086F0020E266E000E276E000E286E000EE9
:1008A000296E26501224D96E27501320DA6EDF509D
:1008B000D8A45DEF84F05FEF84F075EF84F014C589
:1008C000D9F415C5DAF422C5DEF423C5DEF424C557
:1008D000DEF425C5DEF4010E1E6E000E1F6E000E46
:1008E000206E000E216E6FEF85F026501224D96E17
:1008F00027501320DA6E400EDF6481EF84F083EF1F
:1009000084F091EF84F026501224D96E27501320E2
:10091000DA6E460EDF648FEF84F091EF84F0C9EF5A
:1009200084F026501224D96E27501320DA6E600E00
:10093000DF649DEF84F09FEF84F0ADEF84F02650EC
:100940001224D96E27501320DA6E660EDF64ABEFE7
:1009500084F0ADEF84F0C9EF84F026501224D96EF4
:1009600027501320DA6E2F0EDF64B9EF84F0BBEF4F
:1009700084F052EF85F026501224D96E27501320B0
:10098000DA6E3A0EDF60C7EF84F0C9EF84F052EF01
:1009900085F026501224D96E27501320DA6E2F0EC0
:1009A000DF64D5EF84F0D7EF84F0E5EF84F02650D4
:1009B0001224D96E27501320DA6E390EDF64E3EF6C
:1009C00084F0E5EF84F025EF85F026501224D96EEF
:1009D00027501320DA6E400EDF64F1EF84F0F3EF5E
:1009E00084F001EF85F026501224D96E2750132091
:1009F000DA6E460EDF64FFEF84F001EF85F011EF51
:100A000085F026501224D96E27501320DA6EDF505D
:100A1000166EA90E16241C6E1D6AFF0E1D221FEFF6
:100A200085F026501224D96E27501320DA6EDF503D
:100A3000166EC90E16241C6E1D6AFF0E1D221CC5E3
:100A40001AF51DC51BF533EF85F026501224D96E1B
:100A500027501320DA6EDF50166ED00E16241A6E51
:100A60001B6AFF0E1B2222C516F523C517F524C5E8
:100A700018F525C519F5040ED89016361736183610
:100A80001936E82E3CEF85F01A501624226E1B50C2
:100A90001720236E000E1820246E000E1920256EDC
:100AA0005CEF85F0000E1E6E000E1F6E000E206EB5
:100AB000000E216E6FEF85F0010E2626000E272214
:100AC0002822292229502810271009E10B0E265C24
:100AD000D8A06DEF85F06FEF85F051EF84F02950CD
:100AE0002810271009E10B0E265CD8A07AEF85F0BC
:100AF0007CEF85F0B0EF86F0000E1E6E000E1F6ECC
:100B0000000E206E000E216EB0EF86F0000E266EF5
:100B1000000E276E000E286E000E296E265012243D
:100B2000D96E27501320DA6EDF50D8A49AEF85F0E3
:100B30009CEF85F0B2EF85F014C5D9F415C5DAF451
:100B400022C5DEF423C5DEF424C5DEF425C5DEF4BB
:100B5000010E1E6E000E1F6E000E206E000E216E26
:100B6000A1EF86F026501224D96E27501320DA6E9A
:100B70006B0EDE18D8B4BFEF85F0C1EF85F0D0EF73
:100B800085F026501224D96E27501320DA6E4B0EB2
:100B9000DE18D8A4CEEF85F0D0EF85F0F6EF85F023
:100BA0002650271028102910D8B4D9EF85F0DBEF94
:100BB00085F0F6EF85F022C516F523C517F524C597
:100BC00018F525C519F50A0ED890163617361836B9
:100BD0001936E82EE4EF85F016C522F517C523F582
:100BE00018C524F519C525F59CEF85F0265012246B
:100BF000D96E27501320DA6E6D0EDE18D8B403EFCD
:100C000086F005EF86F014EF86F026501224D96E98
:100C100027501320DA6E4D0EDE18D8A412EF86F09E
:100C200014EF86F03AEF86F026502710281029108E
:100C3000D8B41DEF86F01FEF86F03AEF86F022C59C
:100C400016F523C517F524C518F525C519F5140E95
:100C5000D8901636173618361936E82E28EF86F053
:100C600016C522F517C523F518C524F519C525F5B0
:100C70009CEF85F026501224D96E27501320DA6E8F
:100C80002F0EDF6446EF86F048EF86F084EF86F0A3
:100C900026501224D96E27501320DA6E3A0EDF60E8
:100CA00054EF86F056EF86F084EF86F0265012243B
:100CB000D96E27501320DA6EDF50166ED00E162430
:100CC000176E186AFF0E182222C506F523C507F510
:100CD00024C508F525C509F50A0E0A6E000E0B6E2F
:100CE000000E0C6E000E0D6E9DECA0F01750062449
:100CF000226E18500720236E000E0820246E000E6E
:100D00000920256E8EEF86F0000E1E6E000E1F6EFF
:100D1000000E206E000E216EA1EF86F0010E262639
:100D2000000E27222822292229502810271009E105
:100D30000B0E265CD8A09FEF86F0A1EF86F08EEF19
:100D400085F029502810271009E10B0E265CD8A049
:100D5000ACEF86F0AEEF86F0B0EF86F07CEF85F07A
:100D60001EC512F51FC513F520C514F521C515F5CF
:100D700012003050800B396E305030243B6E2FAE55
:100D8000C4EF86F0C6EF86F0C7EF86F03B803B509D
:100D9000D8B4CDEF86F0CFEF86F0E4EF86F03B28B5
:100DA000D8A4D5EF86F0D7EF86F0DFEF86F0000EFF
:100DB0002D6E000E2E6E000E2F6E000E306E2F8EDA
:100DC000000E306EECEF86F0000E2D6E000E2E6ED3
:100DD000000E2F6E000E306E3450800B3A6E39507C
:100DE0003A18D8B4F6EF86F0F8EF86F0F9EF86F00F
:100DF000398C345034243A6E33AE01EF87F003EF70
:100E000087F004EF87F03A803A50D8B40AEF87F0C1
:100E10000CEF87F021EF87F03A28D8A412EF87F083
:100E200014EF87F01CEF87F0000E316E000E326E6B
:100E3000000E336E000E346E338E000E346E29EFCA
:100E400087F0000E316E000E326E000E336E000E13
:100E5000346E3B503A5CD8B030EF87F032EF87F019
:100E600059EF87F039AC37EF87F039EF87F03BEF78
:100E700087F0800E391A3BC53CF53AC53BF53CC5B9
:100E80003AF52DC53CF531C52DF53CC531F52EC5DE
:100E90003CF532C52EF53CC532F52FC53CF533C5C2
:100EA0002FF53CC533F530C53CF534C530F53CC5B0
:100EB00034F5000E3C6E3B503AC535F5366A355E6A
:100EC000000E365A36BE6EEF87F0365009E11A0E24
:100ED000355CD8A06EEF87F070EF87F0A7EF87F052
:100EE0002D502E102F103010D8A479EF87F07CEF02
:100EF00087F0010E7DEF87F0000E3C6E000E2D6E28
:100F0000000E2E6E000E2F6E000E306E3AC53BF5B1
:100F1000B0EF87F03CA08FEF87F091EF87F097EF6D
:100F200087F0D8903C3001093C6E99EF87F0D8905B
:100F30003C322DA09EEF87F0A0EF87F0A1EF87F065
:100F40003C8E303430322F322E322D323B2A3A5002
:100F50003B5CD8A0AEEF87F0B0EF87F08AEF87F068
:100F600039BCB5EF87F0B7EF87F0F7EF87F03B506C
:100F7000D8A4BDEF87F0BFEF87F0C9EF87F0000E70
:100F80002D6E000E2E6E000E2F6E000E306E18EFBE
:100F900089F031502D2632502E2233502F223450DA
:100FA000302230A0D6EF87F0D8EF87F084EF88F0BA
:100FB0003CA0DDEF87F0DFEF87F0E5EF87F0D8901A
:100FC0003C3001093C6EE7EF87F0D8903C322DA011
:100FD000ECEF87F0EEEF87F0EFEF87F03C8E3034E8
:100FE00030322F322E322D323B2A84EF88F03150AE
:100FF0002D5C32502E5833502F583050800A356EA9
:101000003450800A3558D8B008EF88F00AEF88F0DD
:1010100035EF88F02D50315C356E2E503258366EDB
:101020002F503358376E30503458386EFF0E3524F9
:101030002D6EFF0E36202E6EFF0E37202F6EFF0E08
:101040003820306E800E391A3C6C3C50D8A42BEFFF
:1010500088F02DEF88F03DEF88F0010E2D26000E70
:101060002E222F2230223DEF88F031502D5E32505B
:101070002E5A33502F5A3450305A2D502E102F10D4
:101080003010D8A446EF88F048EF88F07DEF88F064
:101090003C50D8A44EEF88F050EF88F07DEF88F0F8
:1010A000000E2D6E000E2E6E000E2F6E000E306E96
:1010B00018EF89F0D8902D362E362F3630363CAECC
:1010C00064EF88F066EF88F067EF88F02D803CA031
:1010D0006CEF88F06EEF88F072EF88F0D8803C36C5
:1010E00074EF88F0D8903C363B50D8B47AEF88F053
:1010F0007CEF88F07DEF88F03B062FAE82EF88F022
:1011000084EF88F05AEF88F0000E3A6E3CAE8BEF19
:1011100088F08DEF88F0A5EF88F03CC535F57F0E9F
:101120003516D8B496EF88F098EF88F09CEF88F0E9
:10113000010E3A6EA5EF88F02DA0A1EF88F0A3EF85
:1011400088F0A5EF88F098EF88F03A50D8B4ABEF6C
:1011500088F0ADEF88F0D8EF88F0010E2D26000E54
:101160002E222F22302230A0B8EF88F0BAEF88F07C
:10117000D8EF88F02DC535F52EC536F52FC537F5D6
:1011800030C538F53834383237323632353235C535
:101190002DF536C52EF537C52FF538C530F53B286A
:1011A000D8B4D5EF88F0D7EF88F0D8EF88F03B2A95
:1011B0003B28D8B4DEEF88F0E0EF88F0E8EF88F065
:1011C0003B50D8A4E6EF88F0E8EF88F0FAEF88F01B
:1011D000000E2D6E000E2E6E000E2F6E000E306E65
:1011E0003B50D8A4F6EF88F0F8EF88F0FAEF88F0DB
:1011F000000E396E3BA0FFEF88F001EF89F004EF9D
:1012000089F02F8E05EF89F02F9ED8903B30306EFD
:1012100039AE0DEF89F00FEF89F010EF89F0308EC5
:101220002DC52DF52EC52EF52FC52FF530C530F562
:1012300012001750800B206E17501724266E16AE22
:1012400024EF89F026EF89F027EF89F026802650D9
:10125000D8B42DEF89F02FEF89F042EF89F02628DE
:10126000D8A435EF89F037EF89F03FEF89F0000E11
:10127000146E000E156E000E166E000E176E168E92
:101280004AEF89F0000E146E000E156E000E166EF9
:10129000000E176E1B50800B201A1B501B24256E4E
:1012A0001AAE55EF89F057EF89F058EF89F0258095
:1012B0002550D8B45EEF89F060EF89F073EF89F0C4
:1012C0002528D8A466EF89F068EF89F070EF89F0DF
:1012D000000E186E000E196E000E1A6E000E1B6EB8
:1012E0001A8E7BEF89F0000E186E000E196E000E3C
:1012F0001A6E000E1B6E2550D8B481EF89F083EF73
:1013000089F08BEF89F02650D8A489EF89F08BEF14
:1013100089F095EF89F0000E146E000E156E000E28
:10132000166E000E176E2DEF8BF01A501402F3C4D8
:101330002BF5F4C42CF52B50216E226A236A246A03
:101340002C50276E286A296A2A6A19501502F3C49C
:101350002BF5F4C42CF52B502126000E222223223B
:1013600024222C502726000E282229222A22185017
:101370001602F3C42BF5F4C42CF52B502126000ED5
:101380002222232224222C502726000E2822292222
:101390002A2223C524F522C523F521C522F5216A79
:1013A00018501502F3C42BF5F4C42CF52B5021264C
:1013B0002C502222000E2322000E24221950140247
:1013C000F3C42BF5F4C42CF52B5021262C502222EB
:1013D000000E2322000E242223C524F522C523F566
:1013E00021C522F5216A18501402F3C42BF5F4C468
:1013F0002CF52B5021262C502222000E2322000EE9
:1014000024221A501502F3C42BF5F4C42CF52B50EA
:1014100027262C502822000E2922000E2A2219509D
:101420001602F3C42BF5F4C42CF52B5027262C50B0
:101430002822000E2922000E2A221A501602F3C476
:101440002BF5F4C42CF52B501C6E2C501D6E1E6A0F
:101450001F6A1EC51FF51DC51EF51CC51DF51C6A9E
:101460001C5027261D5028221E5029221F502A2298
:1014700021C51CF522C51DF523C51EF524C51FF584
:10148000190E48EF8AF0D8901F321E321D321C32DE
:10149000E82E43EF8AF01C5027261D5028221E50AC
:1014A00029221F502A2223C524F522C523F521C550
:1014B00022F5216A255026C51CF51D6A1C26000E42
:1014C0001D22820E1C242B6EFF0E1D202C6E7EEF23
:1014D0008AF0D8902736283629362A3624AE73EF7C
:1014E0008AF075EF8AF076EF8AF02780D89021365F
:1014F0002236233624362B06D8A02C0629AE83EFBD
:101500008AF085EF8AF069EF8AF0000E256E24AE2E
:101510008CEF8AF08EEF8AF0B2EF8AF0FF0E211482
:101520001C6EFF0E22141D6EFF0E23141E6E7F0E06
:1015300024141F6E1C501D101E101F10D8B4A3EFD2
:101540008AF0A5EF8AF0A9EF8AF0010E256EB2EFBE
:101550008AF027A0AEEF8AF0B0EF8AF0B2EF8AF0FF
:10156000A5EF8AF02550D8B4B8EF8AF0BAEF8AF028
:10157000DEEF8AF0010E2726000E282229222A22D9
:101580002AA0C5EF8AF0C7EF8AF0DEEF8AF027C500
:101590001CF528C51DF529C51EF52AC51FF51F34E4
:1015A0001F321E321D321C321CC527F51DC528F501
:1015B0001EC529F51FC52AF52B4A2C2A2CBEE9EF9A
:1015C0008AF02C5008E12B28D8A0E9EF8AF0EBEF45
:1015D0008AF0F5EF8AF0000E276E000E286E800E5E
:1015E000296E7F0E2A6E23EF8BF02CBE02EF8BF05C
:1015F0002C5006E12B04D8B000EF8BF002EF8BF0FB
:101600000EEF8BF0000E276E000E286E000E296E76
:10161000000E2A6E000E206E23EF8BF02BC526F5F0
:10162000FF0E2716FF0E28167F0E2916000E2A160B
:1016300026A01DEF8BF01FEF8BF020EF8BF0298E93
:10164000D89026302A6E20502A1227C514F528C5B6
:1016500015F529C516F52AC517F5120021EEE9F191
:10166000070EDE6AE806FDE240C7E9F541C7EAF584
:1016700042C7EBF543C7ECF540C7EDF541C7EEF5C2
:1016800042C7EFF543C7F0F521EEB9F11F0EDE6A50
:10169000E806FDE260C7B9F561C7BAF562C7BBF5F8
:1016A00063C7BCF5000E0501BD6F000EBE6F000ED6
:1016B000BF6F000EC06F44C7C1F545C7C2F546C72E
:1016C000C3F547C7C4F554C7C5F555C7C6F556C7D2
:1016D000C7F557C7C8F558C7C9F559C7CAF55AC796
:1016E000CBF55BC7CCF5000ECD6F000ECE6F000EB4
:1016F000CF6F000ED06F000ED16F000ED26F000EB4
:10170000D36F000ED46F000ED56F000ED66F000E93
:10171000D76F000ED86F21EED9F10F0EDE6AE80602
:10172000FDE2D969DA69F70EDB6F430EDC6F000E5C
:10173000DD6F000EDE6F000EDF6F000EE06F40C742
:10174000E1F541C7E2F542C7E3F543C7E4F540C719
:10175000E5F541C7E6F542C7E7F543C7E8F5FAC640
:10176000B1F5FBC6B2F5FCC6B3F5FDC6B4F5000E87
:10177000B56F000EB66F000EB76F000EB86F2FC5B5
:10178000D9F430C5DAF4C00EDE18D8A4CAEF8BF055
:10179000CCEF8BF033EF8DF031502F24326E000EF2
:1017A0003020336EFF0E3224D96EFF0E3320DA6EF6
:1017B000C00EDE18D8A4DFEF8BF0E1EF8BF033EF33
:1017C0008DF0020E2F24066E000E3020076E315071
:1017D000FC0F086E67ECA0F00501F16F31502F246B
:1017E000326E000E3020336EFE0E3224D96EFF0EA4
:1017F0003320DA6EF151DE18D8A401EF8CF003EF3C
:101800008CF020EF8DF020EE02F02F50D9263050D2
:10181000DA22DF50F26F20EE03F02F50D92630503D
:10182000DA22DF50326E3250346E336A20EE04F02A
:101830002F50D9263050DA22DF50356E3550331014
:10184000F56F3450F66F24EF8DF0DD0E296EFF0E2C
:101850002A6E31ECA5F0490E296EFE0E2A6EF5C5F2
:101860002BF5F6C52CF531ECA5F009ECA5F02A0E08
:10187000326E8E0EE82EFED7322EFCD7090E3118AE
:10188000D8A445EF8CF047EF8CF051EF8CF0E90EC7
:101890000C6E050E0D6E080E0E6E0CEC94F033EF10
:1018A0008DF00D0E3118D8A458EF8CF05AEF8CF053
:1018B00064EF8CF0D90E0C6E050E0D6E100E0E6ED0
:1018C0000CEC94F033EF8DF0070E3118D8A46BEFC9
:1018D0008CF06DEF8CF033EF8DF005019F05D8A4EF
:1018E00074EF8CF076EF8CF080EF8CF0B10E0C6E14
:1018F000050E0D6E040E0E6E0CEC94F033EF8DF0B1
:10190000B50E0C6E050E0D6E040E0E6E0CEC94F002
:1019100033EF8DF0D10E296EFF0E2A6E31ECA5F05B
:10192000490E296EFE0E2A6EF5C52BF5F6C52CF56F
:1019300031ECA5F009ECA5F0880E0501F51907E1D9
:10194000020EF619D8A4A7EF8CF0A9EF8CF033EFB4
:101950008DF020EE08F02F50D9263050DA22DF50DB
:10196000F36F20EE05F02F50D9263050DA22DF50E9
:10197000F46F2A0E326E8E0EE82EFED7322EFCD772
:101980000501F3A1C6EF8CF0C8EF8CF0D2EF8CF01C
:10199000F4AFCDEF8CF0CFEF8CF0D2EF8CF0C18AAA
:1019A000E2EF8CF0F3A1D7EF8CF0D9EF8CF0E2EFFF
:1019B0008CF0F451D8A4DFEF8CF0E1EF8CF0E2EF83
:1019C0008CF0C19AE90E0C6E050E0D6E000E0E6EB7
:1019D0000CEC94F033EF8DF06D0E296EFF0E2A6E35
:1019E00031ECA5F0490E296EFE0E2A6EF5C52BF5D9
:1019F000F6C52CF531ECA5F009ECA5F0100E0501AB
:101A0000F519F611D8A407EF8DF009EF8DF033EF3B
:101A10008DF02A0E326E8E0EE82EFED7322EFCD7B7
:101A2000B90E0C6E050E0D6E200E0E6E0CEC94F0C1
:101A300033EF8DF0FA0E296EFE0E2A6E31ECA5F012
:101A4000F5ECA4F033EF8DF0F251100AD8B425EF85
:101A50008CF0010AD8B48AEF8CF0310AD8B4ECEFDC
:101A60008CF01AEF8DF01200980E416EF60E426E59
:101A70001D0E436EBE0E446EA00E456EA60E466E43
:101A8000260E476EBE0E486E140E4D6E940E4E6EB0
:101A90004D0E4F6E400E506ECD0E496ECC0E4A6EFE
:101AA000CC0E4B6E3D0E4C6E49C518F54AC519F566
:101AB0004BC51AF54CC51BF56EC73DF56FC73EF516
:101AC00070C73FF5406A3FBE40683DC506F53EC55C
:101AD00007F53FC508F540C509F5010EEAEC94F09D
:101AE00006C514F507C515F508C516F509C517F59A
:101AF00019EC89F014C52DF515C52EF516C52FF571
:101B000017C530F5000E316E800E326E090E336E41
:101B1000C50E346EB9EC86F02DC551F52EC552F5C3
:101B20002FC553F530C554F551C506F552C507F517
:101B300053C508F554C509F511EC99F006C508F729
:101B400007C509F708C50AF709C50BF774C73DF5BE
:101B500075C73EF576C73FF5406A3FBE40683DC554
:101B600006F53EC507F53FC508F540C509F5010E68
:101B7000EAEC94F006C514F507C515F508C516F589
:101B800009C517F541C518F542C519F543C51AF53C
:101B900044C51BF519EC89F014C551F515C552F56E
:101BA00016C553F517C554F551C506F552C507F5C9
:101BB00053C508F554C509F511EC99F006C510F7A1
:101BC00007C511F708C512F709C513F777C73DF523
:101BD00078C73EF579C73FF5406A3FBE40683DC5CE
:101BE00006F53EC507F53FC508F540C509F5010EE8
:101BF000EAEC94F006C514F507C515F508C516F509
:101C000009C517F545C518F546C519F547C51AF5AF
:101C100048C51BF519EC89F014C551F515C552F5E9
:101C200016C553F517C554F551C506F552C507F548
:101C300053C508F554C509F511EC99F006C514F71C
:101C400007C515F708C516F709C517F780C73DF58D
:101C500081C73EF582C73FF5406A3FBE40683DC53B
:101C600006F53EC507F53FC508F540C509F5010E67
:101C7000EAEC94F006C514F507C515F508C516F588
:101C800009C517F54DC518F54EC519F54FC51AF517
:101C900050C51BF519EC89F014C551F515C552F561
:101CA00016C553F517C554F551C506F552C507F5C8
:101CB00053C508F554C509F511EC99F006C520F790
:101CC00007C521F708C522F709C523F78CC73DF5DD
:101CD0008DC73EF58EC73FF5406A3FBE40683DC5A3
:101CE00006F53EC507F53FC508F540C509F5010EE7
:101CF000EAEC94F006C514F507C515F508C516F508
:101D000009C517F54DC518F54EC519F54FC51AF596
:101D100050C51BF519EC89F014C551F515C552F5E0
:101D200016C553F517C554F551C506F552C507F547
:101D300053C508F554C509F511EC99F006C530F7FF
:101D400007C531F708C532F709C533F783C73DF535
:101D500084C73EF585C73FF5406A3FBE40683DC534
:101D600006F53EC507F53FC508F540C509F5010E66
:101D7000EAEC94F006C514F507C515F508C516F587
:101D800009C517F54DC518F54EC519F54FC51AF516
:101D900050C51BF519EC89F014C551F515C552F560
:101DA00016C553F517C554F551C506F552C507F5C7
:101DB00053C508F554C509F511EC99F006C524F78B
:101DC00007C525F708C526F709C527F786C73DF5D6
:101DD00087C73EF588C73FF5406A3FBE40683DC5AE
:101DE00006F53EC507F53FC508F540C509F5010EE6
:101DF000EAEC94F006C514F507C515F508C516F507
:101E000009C517F54DC518F54EC519F54FC51AF595
:101E100050C51BF519EC89F014C551F515C552F5DF
:101E200016C553F517C554F551C506F552C507F546
:101E300053C508F554C509F511EC99F006C528F706
:101E400007C529F708C52AF709C52BF7F7EC9FF056
:101E50001200000E0501C16F000EB76FFC0EBF6FC0
:101E6000FF0EC06F680000F0B8F5B8C506F5076A48
:101E7000000E096E0A0E086EB2EC9BF006500501CA
:101E8000B96FB951F60DF350B825B56F000EBA6FA2
:101E9000020EB66F880EBB6F130EBC6F000EBD6FC7
:101EA000000EBE6FF00E076E5F0E066ECCECA4F057
:101EB000EEECA6F0C10E0E6E050E0F6E3FEC9FF01D
:101EC0000E040F1010101110D8A469EF8FF06BEFF3
:101ED0008FF081EF8FF00D0E0501C119D8A473EFBB
:101EE0008FF075EF8FF081EF8FF0B72B030EB719DE
:101EF000D8A47DEF8FF07FEF8FF081EF8FF09EEF12
:101F00008FF044ECA6F00009D8B489EF8FF08BEF86
:101F10008FF081EF8FF0EBECA6F00501BB07000E10
:101F2000BC5BBD5BBE5BBB51BC11BD11BE11D8A477
:101F30009CEF8FF09EEF8FF058EF8FF0EBECA6F058
:101F40000501BB51BC11BD11BE11D8A4AAEF8FF081
:101F5000ACEF8FF0D0EF8FF0BFC5D9F4C0C5DAF485
:101F6000EF0EDE180DE1BE0EDE180AE1AD0EDE1832
:101F700007E1DE0EDE18D8A4C0EF8FF0C2EF8FF0BD
:101F8000CAEF8FF0000E076E000E066EE8ECA6F0AA
:101F9000D0EF8FF0A00E116EFB0E126E39ECA1F097
:101FA000430E116EFD0E126E39ECA1F00D0E116E86
:101FB000FC0E126E39ECA1F0670E116EFC0E126E63
:101FC00039ECA1F0930E116EFC0E126E39ECA1F0FB
:101FD000BF0E116EFC0E126E39ECA1F0EB0E116EFD
:101FE000FC0E126E39ECA1F0170E116EFD0E126E82
:101FF00039ECA1F014EC9CF00501C16F310EC11950
:10200000D8A405EF90F007EF90F03BEF90F0250E8D
:10201000116EFF0E126E39ECA1F0C4EC95F0BFC545
:10202000D9F4C0C5DAF4EF0EDE180DE1BE0EDE18ED
:102030000AE1AD0EDE1807E1DE0EDE18D8A423EFAC
:1020400090F025EF90F033EF90F0010E116EFE0E40
:10205000126E39ECA1F0660E116EFD0E126E39ECA7
:10206000A1F0C2EF8FF0A00E116EFB0E126E39ECD4
:10207000A1F0D0EF8FF0320EC119D8B442EF90F03A
:1020800044EF90F04DEF90F0C00EC119D8A44BEF83
:1020900090F04DEF90F079EF90F0BFC5D9F4C0C546
:1020A000DAF4EF0EDE180DE1BE0EDE180AE1AD0E19
:1020B000DE1807E1DE0EDE18D8A461EF90F063EFC2
:1020C00090F071EF90F0010E116EFE0E126E39EC71
:1020D000A1F0660E116EFD0E126E39ECA1F0C2EF8A
:1020E0008FF0A00E116EFB0E126E39ECA1F0D0EF46
:1020F0008FF0330EC119D8A480EF90F082EF90F0EA
:1021000094EF90F05C0E116EFF0E126E39ECA1F0A0
:102110000501B951300F1DECA5F00501B551300F87
:102120001DECA5F0D0EF8FF0340EC119D8A49BEFB1
:1021300090F09DEF90F0AFEF90F04A0E116EFF0E11
:10214000126E39ECA1F00501BA51300F1DECA5F06B
:102150000501B651300F1DECA5F0D0EF8FF0C1296D
:10216000D8A4B5EF90F0B7EF90F0E9EF90F0D80E6B
:10217000116EFB0E126E39ECA1F0BFC5D9F4C0C5CB
:10218000DAF4EF0EDE180DE1BE0EDE180AE1AD0E38
:10219000DE1807E1DE0EDE18D8A4D1EF90F0D3EF01
:1021A00090F0E1EF90F0010E116EFE0E126E39EC20
:1021B000A1F0660E116EFD0E126E39ECA1F0C2EFA9
:1021C0008FF0A00E116EFB0E126E39ECA1F0D0EF65
:1021D0008FF0E80E116EFA0E126E39ECA1F0D0EF0E
:1021E0008FF01200000E4C6E000E496E000E4D6E08
:1021F00021EE39F10F0EDE6AE806FDE2000E4B6EAD
:10220000400E5824086E096A080E092222ECA4F038
:102210004A6E4A505826060E586411EF91F013EF9B
:1022200091F011EF92F0000E4F6E000E4E6EFFEF28
:1022300091F0400E4E24D96E080E4F20DA6EC00E7B
:10224000DE18D8A426EF91F028EF91F05AEF91F024
:102250004C50D8A42EEF91F030EF91F05AEF91F05E
:10226000010E4C6E400E4E24D96E080E4F20DA6ED1
:10227000390E4D24E16EE26A050EE222DFC4E7F476
:102280004D2A5850366E376A4E50365E4F50375A88
:1022900037BE56EF91F0375007E1070E365CD8B0E5
:1022A00054EF91F056EF91F0FDEF91F023EF92F0A3
:1022B000FDEF91F04C50D8B460EF91F062EF91F0E7
:1022C000D1EF91F0400E4E24D96E080E4F20DA6EF9
:1022D000C00EDE18D8A46FEF91F071EF91F09BEF74
:1022E00091F0060E4D6077EF91F079EF91F09BEF52
:1022F00091F0000E4D6E400E4E24D96E080E4F2008
:10230000DA6EDF50396E4D2A5850366E376A4E50AD
:10231000365E4F50375A37BE99EF91F0375007E18C
:10232000070E365CD8B097EF91F099EF91F0FDEF82
:1023300091F023EF92F0400E4E24D96E080E4F20FC
:10234000DA6EC00EDE18D8A4A8EF91F0AAEF91F0D3
:10235000D5EF91F0050E4D64B0EF91F0B2EF91F032
:10236000D5EF91F0400E4E24D96E080E4F20DA6E54
:10237000390E4D24E16EE26A050EE222DFC4E7F475
:102380004D2A05019E513A18D8A4C9EF91F0CBEF20
:1023900091F0D1EF91F0010E496E4DC54BF5FDEF77
:1023A00091F0F1ECA5F023EF92F0400E4E24D96E9F
:1023B000080E4F20DA6EC00EDE18D8B4E2EF91F0AE
:1023C000E4EF91F058EF91F0400E4E24D96E080ED4
:1023D0004F20DA6E390E4D24E16EE26A050EE222DC
:1023E000DFC4E7F44D2A0E0E4D64F9EF91F0FBEFD8
:1023F00091F0FDEF91F0D1EF91F04E4A4F2A5850F5
:10240000366E376A36504E5C4F50800A386E375001
:10241000800A3858D8A00FEF92F011EF92F019EF20
:1024200091F04950D8B417EF92F019EF92F023EFE2
:1024300092F0F1ECA5F0390E2F6E050E306E4BC503
:1024400031F52EEC8BF012002EC5D9F42FC5DAF43D
:10245000DE6ADE6ADE6ADD6A3C0E126E050E136EFF
:1024600030C514F531C515F532C516F533C517F568
:10247000CEEC9CF01250131014101510D8B443EF8A
:1024800092F045EF92F095EF92F02C682D682E684F
:102490002F6828EF93F0000E3B6E800E3A6EB0EF7F
:1024A00092F0000E2C6E000E2D6E000E2E6E000EA1
:1024B0002F6E28EF93F03C0E126E050E136E30C592
:1024C00014F531C515F532C516F533C517F5CEEC43
:1024D0009CF01250131014101510D8A472EF92F043
:1024E00074EF92F045EF92F0180E3C18D8A47BEFF1
:1024F00092F07DEF92F045EF92F02EC5D9F42FC502
:10250000DAF4FF0EDE6EFF0EDE6EFF0EDE6EFF0EE5
:10251000DD6E51EF92F0010E2C6E000E2D6E000E4E
:102520002E6E000E2F6E28EF93F03C50010AD8B4A7
:102530004BEF92F0030AD8B44BEF92F0060AD8B4EE
:1025400051EF92F01C0AD8B45BEF92F0590AD8B45C
:102550008BEF92F0200AD8B48BEF92F045EF92F017
:102560002CC5D9F42DC5DAF43CC5DFF4D60E136EB4
:10257000070E146E800E156E000E166E000E176E8E
:10258000000E186E8BEC96F0000E396E010E386E50
:10259000E9EF92F038502C24126E39502D20136E32
:1025A00030C514F531C515F532C516F533C517F527
:1025B000CEEC9CF01250131014101510D8B4E3EFA9
:1025C00092F0E5EF92F0E7EF92F045EF92F0384AA3
:1025D000392A050E3A24346E000E3B20356E3450F5
:1025E000385C35503958D8A0F8EF92F0FAEF92F0F5
:1025F000CAEF92F020EE01F02C50D9262D50DA22AD
:1026000010EE02F02C50E1262D50E222E750FF0A96
:10261000356EDE503518D8B410EF93F012EF93F00A
:1026200014EF93F045EF92F03A50346E3B50356E14
:10263000366A376A2EC5D9F42FC5DAF434C5DEF40C
:1026400035C5DEF436C5DEF437C5DEF451EF92F061
:10265000120013C5D9F414C5DAF4DEC4F6F4DDC4EF
:10266000F7F4000EF86E0800F550250AD8A43BEFE9
:1026700093F03DEF93F0F5EF93F013C5D9F414C543
:10268000DAF4DE2A000EDD22000E05018E6F000E48
:102690008D6F8DC599F58F69906913C5D9F414C5EF
:1026A000DAF4DEC41EF5DDC41FF51EC5F6F41FC541
:1026B000F7F4000EF86E0800F550780AD8A463EF1E
:1026C00093F065EF93F0ECEF93F015C5D9F416C5D0
:1026D000DAF4DFC417F5020EDE26DFC418F5000EAB
:1026E000DD2217C5D9F418C5DAF4DEC419F5DDC446
:1026F0001AF5010E1E24176E000E1F20186E13C54A
:10270000D9F414C5DAF417C5DEF418C5DDF4DEEF2C
:1027100093F0200E206E19500F0B1D6E0A0E1D60D7
:1027200094EF93F096EF93F09AEF93F0300E1D260E
:102730009CEF93F0570E1D262006000E2024D96E24
:10274000DA6A080EDA221DC5DFF4193A1A3A0F0EBA
:1027500019161A50F00B19120F0E1A1619501A10DA
:10276000D8B4B5EF93F0B7EF93F0D3EF93F02050D8
:10277000D8A4BDEF93F0BFEF93F08BEF93F0D3EFBE
:1027800093F0000E2024D96EDA6A080EDA22DF50A8
:10279000176E1750086E096A11C50AF512C50BF5B8
:1027A0004DEC9BF0202A200E2018D8A4DAEF93F0ED
:1027B000DCEF93F0C1EF93F00BEF94F01EC5F6F44D
:1027C0001FC5F7F4000EF86E0800F550780AD8B46B
:1027D00089EF93F0ECEF93F013C5D9F414C5DAF454
:1027E000DE2A000EDD220BEF94F013C5D9F414C5D8
:1027F000DAF4DEC4F6F4DDC4F7F4000EF86E080077
:10280000F550086E096A11C50AF512C50BF54DECB5
:102810009BF0ECEF93F01200050E126EC00E080153
:10282000C06F9EC5C1F8000EC26F000EC36F000ED0
:10283000C46F0CC506F50DC507F50EC508F567ECA8
:10284000A0F0116E000E106E7AEF94F010500C2470
:10285000D96E000E0D20DA6EC00EDE18D8A433EF4C
:1028600094F035EF94F049EF94F0C00E1224D96E35
:10287000DA6A080EDA22DB0EDF6EC10E1224D96E80
:10288000DA6A080EDA22DC0EDF6E020E122679EF0B
:1028900094F010500C24D96E000E0D20DA6EDB0E71
:1028A000DE18D8A456EF94F058EF94F06AEF94F045
:1028B000C00E1224D96EDA6A080EDA22DB0EDF6E41
:1028C000C10E1224D96EDA6A080EDA22DD0EDF6E2E
:1028D00045EF94F010500C24D96E000E0D20DA6EE6
:1028E000C00E1224E16EE26A080EE222DFC4E7F4B1
:1028F000122A102A0E50105CD8A081EF94F083EFBA
:1029000094F026EF94F0DB0E1118D8B48AEF94F00F
:102910008CEF94F0A0EF94F0C00E1118D8B493EFA0
:1029200094F095EF94F0A0EF94F0C00E1224D96EBD
:10293000DA6A080EDA2211C5DFF4122AD8EF94F011
:10294000C00E1118D8A4A7EF94F0A9EF94F0BDEF32
:1029500094F0C00E1224D96EDA6A080EDA22DB0E69
:10296000DF6EC10E1224D96EDA6A080EDA22DC0E8E
:10297000DF6E020E1226D8EF94F0DB0E1118D8A4E9
:10298000C4EF94F0C6EF94F0D8EF94F0C00E122488
:10299000D96EDA6A080EDA22DB0EDF6EC10E12245F
:1029A000D96EDA6A080EDA22DD0EDF6EB9EF94F026
:1029B000C00E1224D96EDA6A080EDA22C00EDF6E5B
:1029C000122AC00E086E080E096E12C50AF55FECD9
:1029D000A3F012000E6E0E50D8B4F1EF94F0F3EFA6
:1029E00094F015EF95F009BEFAEF94F0F8EF94F03B
:1029F00015EF95F006C50AF507C50BF508C50CF5EA
:102A000009C50DF50A1E0B1E0C1E0D1E0A2A000E0E
:102A10000B220C220D220AC510F50BC511F50CC5B1
:102A200012F50DC513F51DEF95F006C510F507C598
:102A300011F508C512F509C513F506500710081061
:102A40000910D8A426EF95F028EF95F032EF95F015
:102A5000000E066E000E076E000E086E000E096E68
:102A6000C3EF95F0960E0F6E3CEF95F00F2AD890BD
:102A70001332123211321032000E10140A6E000E90
:102A800011140B6E000E12140C6EFE0E13140D6E4C
:102A90000A500B100C100D10D8A451EF95F053EF05
:102AA00095F036EF95F061EF95F00F2A010E1026A4
:102AB000000E112212221322D89013321232113238
:102AC0001032000E10140A6E000E11140B6E000E60
:102AD00012140C6EFF0E13140D6E0A500B100C1016
:102AE0000D10D8A476EF95F078EF95F055EF95F0AE
:102AF00080EF95F00F06D890103611361236133647
:102B000012BE85EF95F087EF95F08FEF95F0020EEE
:102B10000F608DEF95F08FEF95F07AEF95F00FB095
:102B200094EF95F096EF95F097EF95F0129ED89070
:102B30000F320FC50AF50B6A0C6A0D6A0AC50DF54E
:102B40000C6A0B6A0A6A0A5010120B5011120C50D0
:102B500012120D5013120E50D8B4B1EF95F0B3EF1E
:102B600095F0BBEF95F009BEBAEF95F0B8EF95F090
:102B7000BBEF95F0138E10C506F511C507F512C50C
:102B800008F513C509F5120021EEC2F311EE49F163
:102B9000090EDBC4E3F4E806FCE2660E116EFB0EE0
:102BA000126E39ECA1F000EC80F03DC553F53EC546
:102BB00054F53FC555F540C556F5E80E116EFF0EAC
:102BC000126E39ECA1F0490E136E050E146E53C54A
:102BD00015F554C516F555C517F556C518F58BEC02
:102BE00096F0490E116E050E126E39ECA1F056BE2C
:102BF00004EF96F056505510541008E15304D8A035
:102C000004EF96F006EF96F03AEF96F0950E116EFF
:102C1000FA0E126E39ECA1F0000E116E0C0E126E4F
:102C200039ECA1F0490E136E050E146E53C515F55F
:102C300054C516F555C517F556C518F58BEC96F025
:102C4000E80E116EFF0E126E39ECA1F0490E116EF6
:102C5000050E126E39ECA1F0F20E116EFF0E126E1F
:102C600039ECA1F0100E116EFF0E126E39ECA1F0CE
:102C70008AEF96F053280AE1542808E1552806E126
:102C80005628D8A446EF96F048EF96F050EF96F00D
:102C9000290E116EFB0E126E39ECA1F084EF96F046
:102CA000FE0E53180AE1542808E1552806E156287B
:102CB000D8A45DEF96F05FEF96F067EF96F0E70E21
:102CC000116EFD0E126E39ECA1F084EF96F0FD0E40
:102CD00053180AE1542808E1552806E15628D8A4DB
:102CE00074EF96F076EF96F07EEF96F0600E116E30
:102CF000FE0E126E39ECA1F084EF96F0890E116E83
:102D0000FD0E126E39ECA1F03B0E116EFC0E126E30
:102D100039ECA1F01200000E286ECA0E296E9A0E30
:102D20002A6E3B0E2B6E000E246E000E256E000EDA
:102D3000266E000E276E000E1C6E000E1D6E000E1D
:102D40001E6E000E1F6E000E206E000E216E000E15
:102D5000226E000E236E24501324D96E25501420A9
:102D6000DA6E15C506F516C507F517C508F518C5B9
:102D700009F528C50AF529C50BF52AC50CF52BC59B
:102D80000DF5CFEC9DF00650300FDF6E010E2426BE
:102D9000000E25222622272215C506F516C507F5A1
:102DA00017C508F518C509F528C50AF529C50BF595
:102DB0002AC50CF52BC50DF5FBEC9EF006C515F5E7
:102DC00007C516F508C517F509C518F528C506F590
:102DD00029C507F52AC508F52BC509F50A0E0A6E9F
:102DE000000E0B6E000E0C6E000E0D6ECFEC9DF003
:102DF00006C528F507C529F508C52AF509C52BF527
:102E000024501324196E255014201A6EFF0E192415
:102E1000D96EFF0E1A20DA6E300EDE18D8A413EF2A
:102E200097F015EF97F02AEF97F01C501D101E1029
:102E30001F10D8A41EEF97F020EF97F02AEF97F01D
:102E4000000E246E000E256E000E266E000E276EFC
:102E500030EF97F0010E1C26000E1D221E221F22AD
:102E6000010E2026000E212222222322235022108E
:102E7000211009E10A0E205CD8A041EF97F043EF42
:102E800097F0ABEF96F01200FAC404F5FBC405F519
:102E9000A8A04DEF97F04FEF97F05AEF97F0B8A03A
:102EA00054EF97F056EF97F05AEF97F0DAECA6F060
:102EB000F0EF97F0A1A25FEF97F061EF97F06CEF62
:102EC00097F0B1A266EF97F068EF97F06CEF97F08C
:102ED0006DEC9EF0F0EF97F0A1A471EF97F073EF17
:102EE00097F07EEF97F0B1A478EF97F07AEF97F034
:102EF0007EEF97F0FDECA6F0F0EF97F0A1A083EF46
:102F000097F085EF97F090EF97F0B1A08AEF97F0E8
:102F10008CEF97F090EF97F021EC9EF0F0EF97F0A8
:102F2000A7A295EF97F097EF97F0AEEF97F0B7A2C3
:102F30009CEF97F09EEF97F0AEEF97F002D8ACEFD2
:102F400097F00500FA6E05018751FD6E8851FE6EFF
:102F50008951FF6EFA501200F0EF97F0A7A0B3EF7F
:102F600097F0B5EF97F0CCEF97F0B7A0BAEF97F0E6
:102F7000BCEF97F0CCEF97F002D8CAEF97F00500BE
:102F8000FA6E05018451FD6E8551FE6E8651FF6E0D
:102F9000FA501200F0EF97F0A1AED1EF97F0D3EF17
:102FA00097F0DEEF97F0B1AED8EF97F0DAEF97F049
:102FB000DEEF97F056ECA4F0F0EF97F0ADA0E3EF62
:102FC00097F0E5EF97F0F0EF97F0BDA0EAEF97F0FC
:102FD000ECEF97F0F0EF97F0F5ECA6F0F0EF97F04C
:102FE00005C5FBF404C5FAF411005A50020D000E99
:102FF000F324D96E0A0EF420DA6EDE6ADD6A02016D
:10300000D8A705EF98F007EF98F029EF98F05A50FD
:10301000020D000EF324D96E0A0EF420DA6E0A01B6
:10302000DF820501785179117A11D8B41AEF98F03E
:103030001CEF98F029EF98F002D829EF98F00500DE
:10304000FA6E7851FD6E7951FE6E7A51FF6EFA502C
:1030500012000201D8A32FEF98F031EF98F053EF50
:1030600098F05A50020D000EF324D96E0A0EF42087
:10307000DA6E0A01DF840501755176117711D8B433
:1030800044EF98F046EF98F053EF98F002D853EFE2
:1030900098F00500FA6E7551FD6E7651FE6E77510F
:1030A000FF6EFA501200C7C202F55A287F0B036E5A
:1030B00059500318D8A45FEF98F061EF98F063EFD0
:1030C00098F06EEF98F0800E5A24D96EDA6A0B0EE3
:1030D000DA2202C5DFF403C55AF55D2A05016F51F6
:1030E00070117111D8B477EF98F079EF98F086EFFE
:1030F00098F002D886EF98F00500FA6E6F51FD6ED9
:103100007051FE6E7151FF6EFA5012001200000EE7
:10311000BE6E000EBF6E000EC06EC80EC16E000EF9
:10312000C26E800EC36EF90EC66EEF0EC76EEB0E4A
:10313000C86E070EC96E070ECA6E730ECB6EF50E03
:103140000401006FC10E086FC60E106F070E186FD6
:10315000070E206F4D0E286F000E016F000E096FD5
:10316000000E116F000E196F000E216F000E296FF7
:10317000000E026F000E0A6F000E126F000E1A6F23
:10318000000E226F000E2A6F03690B6913691B6919
:10319000070E236F2B6904690C6914691C690F0EF3
:1031A000246F2C69000E0201896F000E886F000EDB
:1031B000876F000E866F100E426F130E6B6F2D0E11
:1031C000406F0D0E746F030E766F320E156F180E72
:1031D0002C6F190E2B6F1E0E136F230E0D6F260E04
:1031E000026F270E036F150E6A6F310E166F000EF9
:1031F0000401056F000E066F000E076F000E0D6FC5
:10320000000E0E6F000E0F6F000E156F000E166F82
:10321000000E176F000E256F000E266F000E276F31
:103220001200083409340F6E0F50D8A41AEF99F029
:103230001CEF99F026EF99F0000E066E000E076E57
:10324000000E086E000E096E93EF99F006C50AF5A0
:1032500007C50BF508C50CF509C50DF5200E36EFB1
:1032600099F0D8900D320C320B320A32E82E31EF41
:1032700099F00A500E6E088EFF0E0616FF0E071606
:10328000FF0E0816000E0916960E0F5E0FBE4DEFCC
:1032900099F04BEF99F063EF99F00F50800A970F78
:1032A000D8B055EF99F057EF99F059EF99F01CEF1E
:1032B00099F0D89009320832073206320F3E59EFA2
:1032C00099F07BEF99F01F0E0F6469EF99F06BEFA7
:1032D00099F073EF99F01CEF99F0D8900636073605
:1032E000083609360F060F50D8A479EF99F07BEF16
:1032F00099F06DEF99F00E50D8B481EF99F083EF0B
:1033000099F08BEF99F0091E081E071E066C000E3F
:1033100007220822092206C506F507C507F508C5D4
:1033200008F509C509F5120070ECA4F0340E066E1C
:10333000460E076E010E086E6CECA6F09C0E066E33
:103340004C0E076E010E086E73ECA6F09A0E066E18
:10335000450E076E010E086E65ECA6F0880E066E2F
:103360004A0E076E010E086E69ECA5F0BC0E066EE3
:103370004D0E076E010E086EA4ECA6F0400E066E10
:10338000080E076E000E096E000E086E000E0B6E22
:10339000800E0A6E9EECA3F0D68ED68C000EE3EC67
:1033A0009AF0680E576EE40EE82EFED7572EFCD723
:1033B00000D0E2ECA6F0D2ECA0F005019E6F2EEC5E
:1033C000A6F00009D8A4E7EF99F0E9EF99F0DFEF54
:1033D00099F021ECA6F0E806D8B4F1EF99F0F3EFFC
:1033E00099F0F5EF99F007EF9AF029EC8FF0C80EFD
:1033F000296EFD0E2A6E31ECA5F079EC9AF07DEC89
:103400009DF034EC8DF0F2EC90F0FDEF99F00DEFC3
:1034100000F0C20EF66E490EF76E010EF86E01EE68
:10342000C2F310EE28F00900F5C4EEF4E550E150C7
:10343000FAE1A40EF66E4D0EF76E010EF86E01EE77
:10344000F6F210EE08F00900F5C4EEF4E550E15094
:10345000FAE103EE00F010EE00F1EE6AE550E15003
:10346000FCE1E250FAE102EE00F310EE00F1EE6A48
:10347000E550E150FCE1E250FAE102EE00F210EE1C
:1034800000F1EE6AE550E150FCE1E250FAE102EEB3
:1034900000F1880EEE6AE806FDE102EE00F010EEA3
:1034A00000F1EE6AE550E150FCE1E250FAE101EE94
:1034B00000F3C20EEE6AE806FDE101EEE5F2110E40
:1034C000EE6AE806FDE101EE60F1510EEE6AE806F3
:1034D000FDE101EE58F1080EEE6AE806FDE1040197
:1034E000080E5D6F000E5E6F000E5F6F000194EFBF
:1034F00099F00501A251D8B480EF9AF082EF9AF0CA
:10350000A3EF9AF0C1BA87EF9AF08AEF9AF0010E12
:103510008BEF9AF0000EFF0A086E083A0846C15079
:103520000818DF0B0818C16E000EA26FD1AA9BEF1E
:103530009AF09DEF9AF0A1EF9AF0010E9F6FA3EF22
:103540009AF0000E9F6FD1BAA8EF9AF0ABEF9AF005
:10355000010EACEF9AF0000EA06FA051D8B4B3EFFB
:103560009AF0B5EF9AF0B8EF9AF0C198C1EF9AF0DF
:10357000A051D8A4BEEF9AF0C0EF9AF0C1EF9AF034
:10358000C188D3B2C6EF9AF0C8EF9AF0E0EF9AF094
:10359000A051D8B4CEEF9AF0D0EF9AF0D4EF9AF0D1
:1035A000EEECA3F0E2EF9AF0A051D8A4DAEF9AF093
:1035B000DCEF9AF0E2EF9AF0BAECA3F0E2EF9AF0C7
:1035C000D4ECA3F01200066E000184BFEAEF9AF07B
:1035D000ECEF9AF04CEF9BF0810E0501686F0650FE
:1035E000050D8B0EF324F66EFA0EF420F76EF86AD2
:1035F000000EF8220800F5C484F00650050D010EF7
:10360000F326000EF4228B0EF324F66EFA0EF4204D
:10361000F76EF86A000EF8220800F5C485F006502F
:10362000050D020EF326000EF4228B0EF324F66E27
:10363000FA0EF420F76EF86A000EF8220800F55032
:10364000FC0B0001866F0650050D030EF326000EDD
:10365000F4228B0EF324F66EFA0EF420F76EF86A5D
:10366000000EF8220800F5C489F00650050D040E7E
:10367000F326000EF4228B0EF324F66EFA0EF420DD
:10368000F76EF86A000EF8220800F5C48CF0C89AAC
:10369000A184848F4CEF9BF012000A500B10D8B419
:1036A00054EF9BF056EF9BF05FEF9BF00A500B102E
:1036B000D8A45DEF9BF05FEF9BF064EF9BF00850A8
:1036C00012ECA6F0B1EF9BF020EE0AF00A50D926DA
:1036D0000B50DA22DE50DE10D8B471EF9BF073EF9E
:1036E0009BF08EEF9BF020EE0AF00A50D9260B508B
:1036F000DA2210EE03F00A50E1260B50E222DE50EF
:10370000E65CE650800A106EDE50800A1058D8B091
:103710008CEF9BF08EEF9BF0B1EF9BF020EE03F06F
:103720000A50D9260B50DA22DEC40CF5DDC40DF5A3
:103730000AC5D9F40BC5DAF4DEC40EF5DDC40FF505
:103740000C500E24D96E0D500F20DA6E08C5DFF430
:1037500020EE03F00A50D9260B50DA22DE2A000EA2
:10376000DD221200000E0B6E09BEBBEF9BF0B9EF1D
:103770009BF0C1EF9BF0086C091ED8B0092A010E1E
:103780000B6E07BEC8EF9BF0C6EF9BF0CEEF9BF031
:10379000066C071ED8B0072A010E0B1A000E0D6E1C
:1037A000000E0C6E08500910D8B4D9EF9BF0DBEF77
:1037B0009BF003EF9CF0010E0A6EE3EF9BF0D890B4
:1037C000083609360A2A09AEE8EF9BF0EAEF9BF0CB
:1037D000DFEF9BF0D8900C360D360850065C095090
:1037E0000758D8A0F6EF9BF0F8EF9BF0FDEF9BF0A9
:1037F0000850065E0950075A0C80D89009320832EA
:103800000A2EEAEF9BF00B50D8B409EF9CF00BEFB7
:103810009CF00FEF9CF00C6C0D1ED8B00D2A0CC55F
:1038200006F50DC507F51200000E1A6E000E166E95
:10383000000E176E000E186E000E196EFF0E076E4A
:10384000CE0E066ECCECA4F01A0E0E6E050E0F6EA8
:103850003FEC9FF00EC512F50FC513F510C514F51A
:1038600011C515F5EEECA6F044ECA6F00009D8B4AD
:103870003CEF9CF03EEF9CF034EF9CF0EBECA6F0BC
:10388000010E1626000E17221822192212501310AC
:1038900014101510D8A44FEF9CF051EF9CF060EF7E
:1038A0009CF019500DE1200E165CA10E1758070E62
:1038B0001858D8A05EEF9CF060EF9CF024EF9CF0CD
:1038C00019500DE1200E165CA10E1758070E18585E
:1038D000D8A06DEF9CF06FEF9CF072EF9CF0FF0EA4
:1038E00073EF9CF01A501200000E116E370E126E1C
:1038F000010E0F6E000E0E6E000ED6BE010E106E83
:10390000370E0A180910D8B488EF9CF08AEF9CF0A3
:10391000A7EF9CF09AEF9CF009C5D9F40AC5DAF438
:1039200011C5E1F412C5E2F4DFC4E7F4094A0A2A3A
:10393000114A122A0E06D8A00F060E2806E10F28FB
:10394000D8A4A5EF9CF0A7EF9CF08CEF9CF008C5E5
:1039500045F006C50BF507C50CF508C50DF50CC5FA
:103960000BF50DC50CF50D6A0B500001446F06C533
:1039700043F04151F80B0509416FD69E00015FC528
:1039800042F05E50426F408110B002D0D69E01D00E
:10399000D68EF80E000141174151120014C506F5EC
:1039A00015C507F516C508F517C509F5B80E0A6E51
:1039B0000B0E0B6E000E0C6E000E0D6E9DECA0F04B
:1039C00006C51CF507C51DF508C51EF509C51FF57B
:1039D00005EF9DF012C50EF513C50FF53FEC9FF0F6
:1039E0000E040F1010101110D8A4F9EF9CF0FBEF8B
:1039F0009CF005EF9DF0000E126E000E136E000E8F
:103A0000146E000E156E25EF9DF01CC518F51DC532
:103A100019F51EC51AF51FC51BF51C06000E1D5A0B
:103A20001E5A1F5A1BBE21EF9DF01B501A10191071
:103A300006E11804D8B01FEF9DF021EF9DF0EAEFEA
:103A40009CF012681368146815681200A790EA0EBB
:103A50000501846F2F0E856F010E866FA792020EEF
:103A6000876F470E886F010E896F000E0201C76FC6
:103A7000000EC96F000ECB6F000ECD6F000ECF6F22
:103A8000B00ED16F800ED26F020ED36F400ED46F86
:103A9000030ED56F2E0ED66F000ED76F800ED86F27
:103AA000000ED96FF40E066E4D0E076E010E086EF5
:103AB0009CECA5F0F00E066E4D0E076E010E086E22
:103AC0008BECA5F0000E066E000E076E000E086E61
:103AD0007AECA5F0000E0501966F000E956F000EB2
:103AE0005C6E000EA66F400E5B6E000E5A6E000EEE
:103AF000596E000E5D6EA7801200010E6AECA1F0F7
:103B00000DC568F70EC569F70FC56AF70D0E9AEC7B
:103B1000A1F00DC56EF70EC56FF70FC570F70F0E4C
:103B20009AECA1F00DC574F70EC575F70FC576F7C1
:103B3000100E9AECA1F00DC577F70EC578F70FC5FA
:103B400079F7130E9AECA1F00DC580F70EC581F739
:103B50000FC582F7170E9AECA1F00DC58CF70EC5B4
:103B60008DF70FC58EF7140E9AECA1F00DC583F7F3
:103B70000EC584F70FC585F7150E9AECA1F00DC59B
:103B800086F70EC587F70FC588F7180E9AECA1F0D7
:103B90000DC58FF70EC590F70FC591F71200000EF7
:103BA0000E6E000E0F6E000E106E000E116E0A509B
:103BB0000B100C100D10D8B4E0EF9DF0E2EF9DF06B
:103BC00018EF9EF0010E126EECEF9DF0D8900A36C1
:103BD0000B360C360D36122A0DAEF1EF9DF0F3EFD9
:103BE0009DF0E6EF9DF0D8900E360F361036113668
:103BF0000A50065C0B5007580C5008580D500958D5
:103C0000D8A005EF9EF007EF9EF010EF9EF00A504F
:103C1000065E0B50075A0C50085A0D50095A0E8078
:103C2000D8900D320C320B320A32122EF3EF9DF087
:103C30000EC506F50FC507F510C508F511C509F540
:103C40001200050166516711D8B429EF9EF02BEFE1
:103C50009EF03BEF9EF062C5D9F463C5DAF480C0F4
:103C6000DFF4624B632BFF0E6625666FFF0E672144
:103C7000676F3DEF9EF000018051050166516711AD
:103C8000D8A445EF9EF047EF9EF06CEF9EF0A19018
:103C9000C39E64516511D8A450EF9EF052EF9EF080
:103CA00054EF9EF0810E686F0601D951DA11DB11D5
:103CB000D8B45DEF9EF05FEF9EF06CEF9EF002D8FF
:103CC0006CEF9EF00500FA6ED951FD6EDA51FE6E72
:103CD000DB51FF6EFA5012001200050164516511AC
:103CE000D8B475EF9EF077EF9EF088EF9EF0C19606
:103CF00060C5D9F461C5DAF4DF500001816F0501B8
:103D0000604B612BFF0E6425646FFF0E6521656FAC
:103D100064516511D8A48FEF9EF091EF9EF0B5EF3E
:103D20009EF0A19266516711D8A499EF9EF09BEF87
:103D30009EF09DEF9EF0810E686F0601D651D7115F
:103D4000D811D8B4A6EF9EF0A8EF9EF0B5EF9EF084
:103D500002D8B5EF9EF00500FA6ED651FD6ED75130
:103D6000FE6ED851FF6EFA5012001200000E0201D2
:103D7000B46F000EB56F000EB66F000EB76F000E79
:103D8000B86F000EB96F000EBA6F000EBB6F000E59
:103D9000BC6F000EBD6FB00EBE6F800EBF6F080E01
:103DA000C06F8A0EC16F000EC26F2E0EC36F000E61
:103DB000C46F800EC56F000EC66FF20E066E4D0EFC
:103DC000076E010E086ECFECA5F0EE0E066E4D0EDE
:103DD000076E010E086EBEECA5F0000E066E000E1A
:103DE000076E000E086EADECA5F0000E0501946F95
:103DF000000E936F12000A500B100C100D10D8B467
:103E000004EF9FF006EF9FF036EF9FF0010E0E6E6D
:103E100010EF9FF0D8900A360B360C360D360E2A6E
:103E20000DAE15EF9FF017EF9FF00AEF9FF00A50CD
:103E3000065C0B5007580C5008580D500958D8A074
:103E400024EF9FF026EF9FF02EEF9FF00A50065EC2
:103E50000B50075A0C50085A0D50095AD8900D3281
:103E60000C320B320A320E2E17EF9FF006C506F504
:103E700007C507F508C508F509C509F512000501CC
:103E80009A51585CD8B047EF9FF049EF9FF060EF30
:103E90009FF0400E5824D96EDA6A080EDA220EC559
:103EA000E1F40FC5E2F4DFC4E7F4582A010E0E6E08
:103EB000000E0F6E000E106E000E116E7CEF9FF064
:103EC000F1ECA5F0400E086E080E096E22ECA4F08D
:103ED00005019A6F9A51D8B470EF9FF072EF9FF07E
:103EE00074EF9FF049EF9FF0000E0E6E000E0F6E04
:103EF000000E106E000E116E1200000E8D6E030E7D
:103F00008E6E000E8F6EE70E906E030E916E3F0E5A
:103F1000926E000E936E000E946E000E956E000E63
:103F2000976E000E986E000E996EF40E9A6E010E4A
:103F30009B6EB79CB79E94909492A79EA79C000EF0
:103F4000066E000E076E000E086E81ECA6F0000EE5
:103F5000066E000E076E000E086E7AECA6F0000EDC
:103F6000066E000E076E000E086E88ECA6F0800E3E
:103F7000966E1200000E606E030E616E000E626E91
:103F8000E70E636E030E646E3F0E656E000E666E86
:103F9000000E676E000E686E000E6A6E000E6B6E8D
:103FA000000E6C6EF40E6D6E010E6E6EB29CB29EC3
:103FB00067906792A29EA29C000E066E000E076E8E
:103FC000000E086E96ECA6F0000E066E000E076E50
:103FD000000E086E8FECA6F0000E066E000E076E47
:103FE000000E086E9DECA6F0800E696E12000BC7E5
:103FF00038F70AC739F709C73AF708C73BF713C7B5
:1040000040F712C741F711C742F710C743F717C768
:1040100044F716C745F715C746F714C747F723C730
:1040200050F722C751F721C752F720C753F733C7BC
:1040300060F732C761F731C762F730C763F727C748
:1040400054F726C755F725C756F724C757F72BC788
:1040500058F72AC759F729C75AF728C75BF712003C
:104060000C6E010E0501AC6F0C44E846FC0BAD6F05
:10407000AC0E066E050E076E000E096E020E086E7F
:10408000FAECA1F057ECA5F00009D8B44AEFA0F083
:104090004CEFA0F042EFA0F0000E0501A46FA70EB8
:1040A000066E050E076E000E096E030E086ECAEC52
:1040B000A1F057ECA5F00009D8B461EFA0F063EFD0
:1040C000A0F059EFA0F0000E0501A36F1200000E42
:1040D000096E000E0B6E000E096E92EFA0F006C581
:1040E000D9F407C5DAF4DF500B1A064A072A000E86
:1040F0000A6E0BAE7EEFA0F080EFA0F086EFA0F08E
:10410000D8900B36070E0B1A88EFA0F0D8900B361C
:104110000A2A070E0A648FEFA0F091EFA0F079EF62
:10412000A0F0092A0850095CD8A099EFA0F09BEFF5
:10413000A0F06FEFA0F00B501200000E0E6E000EFC
:104140000F6E000E106E000E116E06A0AAEFA0F00A
:10415000ACEFA0F0B4EFA0F00A500E260B500F22E7
:104160000C5010220D501122D8900A360B360C3606
:104170000D36D89009320832073206320650071041
:1041800008100910D8A4C7EFA0F0C9EFA0F0A5EF60
:10419000A0F00EC506F50FC507F510C508F511C549
:1041A00009F51200CFB2D7EFA0F0DBEFA0F0066A5E
:1041B000062ADCEFA0F0066ACFB4E1EFA0F0E5EF4D
:1041C000A0F0020E076EE6EFA0F0076ACFB6EBEFA5
:1041D000A0F0EFEFA0F0040E086EF0EFA0F0086A78
:1041E000D3B8F5EFA0F0F9EFA0F0096A092AFAEFC9
:1041F000A0F0096AD8900936D8900936D8900934C9
:10420000081007100610FF0A0F0B1200000E086EB0
:10421000000E096E000E0A6E000E0B6EFF0E076E8A
:10422000CE0E066ECCECA4F02AEFA1F0EEECA6F0D8
:1042300044ECA6F00009D8B420EFA1F022EFA1F0E1
:1042400018EFA1F0EBECA6F0010E0826000E0922F3
:104250000A220B220B500A100BE1100E085C270EED
:104260000958D8A036EFA1F038EFA1F016EFA1F071
:10427000120050EFA1F011C5F6F412C5F7F4000ECC
:10428000F86E360EF76403D00800F55005D0F6C47A
:10429000E9F4F7C4EAF4EF501DECA5F0114A122A34
:1042A00011C5F6F412C5F7F4000EF86E360EF76479
:1042B00003D00800F55005D0F6C4E9F4F7C4EAF4D9
:1042C000EF500009D8A467EFA1F069EFA1F03BEF30
:1042D000A1F012001C6E1C5030ECA0F0E40E00D0D7
:1042E00000D0E82EFCD700D000D00501A951106EF7
:1042F000116A126AA851136E146A156A14C515F56D
:1043000013C514F5136AA751186E176A166A13506D
:104310001610196E145017101A6E155018101B6EC7
:10432000105019100D6E11501A100E6E12501B10F5
:104330000F6E12001C6E1C5030ECA0F0E40E00D08A
:1043400000D0E82EFCD700D000D00501A951106E96
:10435000116A126AA851136E146A156A14C515F50C
:1043600013C514F5136AA751186E176A166A13500D
:104370001610196E145017101A6E155018101B6E67
:10438000105019100D6E11501A100E6E12501B1095
:104390000F6E120006C50AF507C50BF5810E050163
:1043A0006819D8A4D6EFA1F0D8EFA1F0F9EFA1F0E9
:1043B000000186510109FD0B866F000E0501606F3B
:1043C000000E616F0AC562F50BC563F5000E656FDF
:1043D000000E646F08C566F509C567F5420E686F83
:1043E00000018785000E816F0950836F08C582F038
:1043F000A180120006C50AF507C50BF5810E05015F
:104400006819D8A406EFA2F008EFA2F027EFA2F0F7
:1044100000018651FE0B0209866F0AC560F50BC5C7
:1044200061F5000E0501626F000E636F08C564F54B
:1044300009C565F5000E676F000E666F420E686F66
:10444000000187850950836F08C582F0A1821200A0
:10445000D68A03016C816583658565816B836B8179
:10446000658F7181AF90D680000E066E000E076ECC
:10447000000E086EB2ECA6F0B490D692000E066E56
:10448000000E076E000E086EABECA6F0B890D69446
:10449000FC0E066E4D0E076E010E086EA4ECA6F023
:1044A000A880120023C527F524C528F566EFA2F0E1
:1044B00021C511F522C512F5270E136E050E146ED7
:1044C00025C515F526C516F529EC93F027C5F6F494
:1044D00028C5F7F4000EF86E0800F5500009D8A4BE
:1044E00074EFA2F076EFA2F058EFA2F0000E226E69
:1044F000000E216E120003011E91000E1F6F000EB0
:10450000206F000E216F000E1D6F000E1C6F1D51DD
:10451000096E1C510501976F09C598F5F60E066ED8
:104520004D0E076E010E086E57ECA6F0000E066EDB
:10453000000E076E000E086E5EECA6F0B198B19A00
:10454000350E03011E6F1200000ED6BE010E0C6E5A
:1045500008C545F006C509F507C50AF508C50BF5F8
:104560000AC509F50BC50AF50B6A09500001446F2D
:104570004151F80B0609416FD69E00015FC542F01C
:104580005E50426F40810CB002D0D69E01D0D68ED4
:10459000F80E00014117415112000501914B922B79
:1045A000F40E915D010E9259D8A0D9EFA2F0DBEF85
:1045B000A2F0F4EFA2F0C1BCE0EFA2F0E3EFA2F0B2
:1045C000010EE4EFA2F0000EFF0A016E013A01466F
:1045D0000146C1500118BF0B0118C16E000E926F49
:1045E000000E916F010EA16F1200076EA7B2FBEFD4
:1045F000A2F0FDEFA2F001EFA3F007C5C9F218EF9A
:10460000A3F05B50D8B407EFA3F009EFA3F018EFC5
:10461000A3F0000E5C24D96EDA6A090EDA2207C50F
:10462000DFF45C283F0B066E06C55CF5A7925B06BF
:10463000A7821200010E0501A46F39ECA6F0000953
:10464000D8B425EFA3F027EFA3F01DEFA3F00501E9
:104650009D51D8B42EEFA3F030EFA3F038EFA3F0C4
:10466000D50EE82EFED70000C186000E05019D6F15
:10467000D50EE82EFED700001200A194A192A190C1
:10468000000E0001846F000E856F000E866F000E15
:10469000896F000E8C6F000E066E000E076E000E06
:1046A000086E73ECA6F0000E066E000E076E000E8C
:1046B000086E6CECA6F0000E0501686F1200000E8B
:1046C0000B6E77EFA3F002ECA6F00009D8B46BEF05
:1046D000A3F06DEFA3F063EFA3F00B500824D96EA5
:1046E000000E0920DA6EDF50F5ECA2F00B2A0A501A
:1046F0000B5CD8A07EEFA3F080EFA3F063EFA3F0F4
:104700001200400E5B6087EFA3F089EFA3F09CEFEF
:10471000A3F0000E0501A625D96EDA6A090EDA2289
:10472000DF500201C96F0501A6293F0B016E01C5CB
:10473000A6F55B2A9DEFA3F0A792120006C50CF523
:1047400007C50DF5ACEFA3F00CC5D9F40DC5DAF42F
:1047500008C5DFF40C4A0D2A0A06D8A00B060A2861
:1047600006E10B28D8A4B7EFA3F0B9EFA3F0A4EFAC
:10477000A3F01200FF0E076E000E066EB9ECA6F055
:10478000010E076E000E066EBEECA6F0000E076E60
:10479000000E066EC3ECA6F0F1ECA6F0F3ECA6F06A
:1047A000030E05019C6F12007D0E076E000E066E53
:1047B000B9ECA6F0000E076E000E066EC3ECA6F074
:1047C000000E076E000E066EBEECA6F0F1ECA6F031
:1047D000F3ECA6F0000E05019C6F1200000E076EB0
:1047E000000E066EB9ECA6F0000E076E000E066E07
:1047F000C3ECA6F07D0E076E000E066EBEECA6F0B2
:10480000F1ECA6F0F3ECA6F0010E05019C6F12008E
:10481000000E0001B46F070EB56F070EB66F070EDE
:10482000B76F070EB86F070EB96F070EBA6F070E96
:10483000BB6F070EBE6F070EBF6F000EF46E000E4B
:10484000F36E1200000E0B6E32EFA4F03CECA4F0FD
:104850000A6E0B500824D96E000E0920DA6E0AC5C4
:10486000DFF40B2A5D50D8A438EFA4F03AEFA4F09F
:1048700026EFA4F00B501200800E5924D96EDA6A8C
:104880000B0EDA22DF50076E59287F0B066E06C525
:1048900059F5A7905D50D8B450EFA4F052EFA4F0B2
:1048A00053EFA4F05D06A78007501200B19E0601E9
:1048B000D351D411D511D8B460EFA4F062EFA4F0B5
:1048C0006FEFA4F002D86FEFA4F00500FA6ED35199
:1048D000FD6ED451FE6ED551FF6EFA5012001200DB
:1048E000E0ECA5F087EC98F008ECA4F0C8ECA6F09A
:1048F000BAEC9FF07DEC9FF03DECA3F0B7ECA4F098
:104900007BECA2F0B6EC9EF026EC9DF028ECA2F039
:10491000120005017B517C117D11D8B492EFA4F0F7
:1049200094EFA4F0A1EFA4F002D8A1EFA4F0050049
:10493000FA6E7B51FD6E7C51FE6E7D51FF6EFA501A
:1049400012001200000E066E0201C3ABAAEFA4F023
:10495000ACEFA4F0B5EFA4F0BEABB1EFA4F0B3EFB1
:10496000A4F0B5EFA4F0010E066E065012007C0E06
:104970000301196F000E186F690E1B6FF80E066E9B
:104980004D0E076E010E086E65ECA6F0B19EA18E6D
:10499000800E03011A6F120003011EA5D2EFA4F0CE
:1049A000D4EFA4F0DCEFA4F01E9107501D6F06C5F4
:1049B0001CF31E81E0EFA4F007501D6F06C51CF329
:1049C000120020202020202020202020C0008089CC
:1049D000C0C0000000C04E6F0A00000000000000D0
:1049E0000000000000000000000021EECCF311EEFA
:1049F0000CF1040EDBC4E3F4E806FCE29EC50DF501
:104A00000C0E086E050E096E050E0A6E5FECA3F023
:104A1000120021EED1F311EE0CF1040EDBC4E3F42D
:104A2000E806FCE29EC50DF50C0E086E050E096E3B
:104A3000050E0A6E5FECA3F01200106E000E0C6EF5
:104A4000000E0D6E000E0E6E000E0F6E10C50CF5F2
:104A50000C0E086E050E096E010E0A6E5FECA3F0D7
:104A600012002B0E2D6E050E2E6E000E216E000E06
:104A7000226E29C523F52AC524F52D0E256E050EB7
:104A8000266E52ECA2F01200C1BE49EFA5F04CEF29
:104A9000A5F0010E4DEFA5F0000EFF0A016E0132E8
:104AA0000132C15001187F0B0118C16E1200810E36
:104AB00005016819D8A45FEFA5F061EFA5F065EFD7
:104AC000A5F0010E066E67EFA5F0000E066E06500B
:104AD0001200065007100810D8B471EFA5F073EF5C
:104AE000A5F079EFA5F006C56FF507C570F508C507
:104AF00071F51200065007100810D8B482EFA5F027
:104B000084EFA5F08AEFA5F006C5F0F607C5F1F62B
:104B100008C5F2F61200065007100810D8B493EF3B
:104B2000A5F095EFA5F09BEFA5F006C575F507C5B7
:104B300076F508C577F51200065007100810D8B4AE
:104B4000A4EFA5F0A6EFA5F0ACEFA5F006C578F5AB
:104B500007C579F508C57AF5120006500710081048
:104B6000D8B4B5EFA5F0B7EFA5F0BDEFA5F006C539
:104B7000EDF607C5EEF608C5EFF612000650071071
:104B80000810D8B4C6EFA5F0C8EFA5F0CEEFA5F099
:104B900006C569F507C56AF508C56BF5120006502C
:104BA00007100810D8B4D7EFA5F0D9EFA5F0DFEFC4
:104BB000A5F006C56CF507C56DF508C56EF51200C4
:104BC000600E0001AD6F000EAF6F000EB36F080EE8
:104BD000B16F000EB06F000EAC6F000E0401586F85
:104BE0001200400E066E080E076E000E096E000ED3
:104BF000086E000E0B6E800E0A6E9EECA3F0000E87
:104C0000586E1200D7AE07EFA6F039EFA6F05B5052
:104C1000D8A40DEFA6F010EFA6F0010E11EFA6F04C
:104C2000000E1200076EA2ECA4F00009D8B41BEF2E
:104C3000A6F01DEFA6F013EFA6F00750D6ECA6F0F5
:104C40001200000141AF27EFA6F029EFA6F02CEFEC
:104C5000A6F0010E2DEFA6F0000E1200000140B1EB
:104C600034EFA6F037EFA6F0010E38EFA6F0000EF5
:104C700012005B50D8A43FEFA6F042EFA6F0010E61
:104C800043EFA6F0000E1200B1B849EFA6F04CEFCA
:104C9000A6F0010E4DEFA6F0000E1200010E050168
:104CA000A36F350EE82EFED70000C186120006C5A0
:104CB000EAF707C5EBF708C5ECF7120006C5D0F612
:104CC00007C5D1F608C5D2F6120006C5D3F607C54A
:104CD000D4F608C5D5F6120006C5D6F607C5D7F630
:104CE00008C5D8F6120006C5D9F607C5DAF608C514
:104CF000DBF6120006C5DFF607C5E0F608C5E1F6EB
:104D0000120006C5E2F607C5E3F608C5E4F6120090
:104D100006C5DCF607C5DDF608C5DEF6120006C5D9
:104D2000FAF507C5FBF508C5FCF5120006C5FDF54B
:104D300007C5FEF508C5FFF5120006C5F7F507C55E
:104D4000F8F508C5F9F5120006C57BF507C57CF531
:104D500008C57DF5120006C57EF507C57FF508C5B7
:104D600080F5120006C581F507C582F508C583F5F3
:104D7000120006C598F40750996E120006C56DF42E
:104D800007506E6E120006C56BF407506C6E120071
:104D9000E5ECA6F0BD90AD801200116E11501DEC37
:104DA000A5F012000000010000000001066E06C51B
:104DB000B6F21200B89089ECA4F01200010E0501C1
:104DC000A26F120003011A8F12000001419F12000E
:104DD000D69ED69C120003011E91120003011E8173
:104DE00012009684120069841200BD901200120015
:0E4DF000120012001200120012001200120037
:020000040030CA
:100000008FEFF7FF9FFFFFFFFFFFFFFFFFFFFFFFE8
:10001000FFFFFFFFFFFFFFFFFFFFFFFFFFFFFFFFF0
:03002000FFFFFFE0
:00000001FF
